:100000000C9464060C9496080C94AB060C94AB0606
:100010000C94AB060C94AB060C94AB060C94AB069C
:100020000C94AB060C94AB060C94362A0C94092B5A
:100030000C94FE200C94AB060C94AB060C94AB060F
:100040000C94AB060C94AB060C94AB060C94AB066C
:100050000C94AB060C9466210C94AB060C94AB0686
:100060000C94AB060C94AB060C94AB060C94AB064C
:100070000C94AB060C94AB060C94AB060C94AB063C
:100080000C94AB060C94AB060C94AB060C94AB062C
:100090000C94AB060C94AB060C94AB060C94AB061C
:1000A0000C94AB060C94AB060C94AB06076342367B
:1000B000B79BD8A71A39685618AEBAAB558C1D3CF9
:1000C000B7CC5763BD6DEDFD753EF6177231BF00BD
:1000D0000000803F05A84CCDB2D44EB93836A902F5
:1000E0000C50B9918688083CA6AAAA2ABE00000036
:1000F000803F490035001E001F0020002100220023
:100100002D002B0014001A000800150017002E0007
:10011000290004001600070009000A004B00E10056
:100120001D001B000600190005004E00D55CE00014
:10013000E200E300D35C2C004C002A0027002600DC
:1001400025002400230030002F00130012000C00B3
:1001500018001C002800340033000F000E000D00B2
:100160000B004D004A003800370036001000110027
:1001700031004F00520051005000D45C2C000100AF
:1001800035023A003B003C003D003E002D020100DC
:100190001E021F022002210222022E0201003A004A
:1001A0003B003C003D003E000100010040004100DA
:1001B0004200430044000100010001000100010071
:1001C000010001004500440043004200410040009E
:1001D0003F0030022F0227022602250224022302BA
:1001E0000100010030022F022E022D023F0001000B
:1001F000010001000100010001004500A800AE005F
:10020000A900AA00AB0001000100010035023A007C
:100210003B003C003D003E002D0201001E001F007F
:100220002000210022002E0201003A003B003C0089
:100230003D003E000100010040004100420043003B
:100240004400010001000100010001000100010063
:100250004500440043004200410040003F0030029E
:100260002F022700260025002400230001000100A2
:1002700030002F002E002D003F0001000100010082
:100280000100640032004500A800AE00A900AA00E9
:10029000AB000100010000000000000000000000B1
:1002A000000000000000000000000000000000004E
:1002B000000000000000000000000000000000003E
:1002C000000000000000000000000000000000002E
:1002D000000000000000000000000000000000001E
:1009B000000001003A003B003C003D003E003F00CB
:1009C00001000100005CBA5CBB5CBE5CBD5C010068
:1009D0000100010001001D5C1E5C135C01000100B0
:1009E00001000100010001000100010001000100FF
:1009F0000100010001000100010045004400430026
:100A000042004100400001004C000100C15CC25C9A
:100A1000BF5CC05C01000100010001000100D25C6C
:100A20000A5C010001000100010001000100010059
:100A30000100010001000100010001000100680146
:100A4000F000B40078005A007F3F1F643214643213
:100A500014783C1E1E140A0500000000000101016C
:100A6000010101010101020202020202020202036B
:100A7000030303030303030404040404040505053A
:100A800005050606060606070707070808080809F9
:100A900009090A0A0A0A0B0B0B0C0C0C0D0D0D0EA2
:100AA0000E0F0F0F10101111111212131314141531
:100AB0001516161717181819191A1A1B1C1C1D1DA4
:100AC0001E1F1F20202122222324252526272728F8
:100AD000292A2B2B2C2D2E2F2F3031323334353623
:100AE000363738393A3B3C3D3E3F4041424344462D
:100AF0004748494A4B4C4D4F505152535556575801
:100B00005A5B5C5E5F606263646667696A6C6D6EA7
:100B1000707173747678797B7C7E8081838486881B
:100B20008A8B8D8F91929496989A9B9D9FA1A3A555
:100B3000A7A9ABADAFB1B3B5B7B9BBBDBFC1C4C653
:100B4000C8CACCCFD1D3D6D8DADCDFE1E4E6E8EB13
:100B5000EDF0F2F5F7FAFCFF0403300000002A0381
:100B600054006800650020005600690074006500AC
:100B700072006200690020004B006500790062008D
:100B80006F0061007200640000000E034B006500FE
:100B90006500620069006F00000004030904090297
:100BA0005400030100A0FA09040000010301010040
:100BB0000921110100012240000705810308000AF4
:100BC00009040100010301020009211101000122B1
:100BD0004D000705820308000A0904020001030012
:100BE00000000921110100012236000705830308D6
:100BF000000A1201100100000008EBCE571100019D
:100C00000102030105010980A101850216010026E8
:100C100003001A81002A8300751095018100C00528
:100C20000C0901A1018503160100269C021A01008E
:100C30002A9C02751095018100C005010902A101DD
:100C40000901A100050919012905150025019505CE
:100C50007501810295017503810105010930093192
:100C60001581257F95027508810609381581257F34
:100C7000950175088106050C0A38021581257F95B6
:100C80000175088106C0C005010906A10105071903
:100C9000E029E71500250195087501810295017588
:100CA000088101050819012905950575019102952D
:100CB00001750391010507190029FF150026FF00A2
:100CC000950675088100C00011241FBECFEFDAE041
:100CD000DEBFCDBF04B603FE27C0809142029091D3
:100CE0004302A0914402B09145028730904BA74047
:100CF000B04BD1F41092420210924302109244027F
:100D00001092450214BE84B7877F84BF0FB6F89453
:100D1000A8958091600088618093600010926000C7
:100D20000FBEE0E0F8E3099511E0A0E0B1E0ECEFE0
:100D3000F0E602C005900D92A034B107D9F722E089
:100D4000A0E4B1E001C01D92A234B207E1F70E9415
:100D500063270C947C300C940000089508950C9443
:100D6000AE068091E901836088608093E901ADE17E
:100D7000B1E061E070E08D91E82FE295EF70F0E076
:100D800041A18F709B0101C0220F8A95EAF7922F33
:100D90009095942391A382A1822B82A381E0A23219
:100DA000B80749F7A6E1B1E061E070E08D91E82F66
:100DB000E295EF70F0E041A18F709B0101C0220F1E
:100DC0008A95EAF7922F9095942391A382A1822B82
:100DD00082A381E0AD31B80749F7559A209AE0E443
:100DE000F1E0ABE4B1E08AE491E011921D928E173C
:100DF0009F07D9F70C94A20C4F925F926F927F924B
:100E00008F929F92AF92BF92CF92DF92EF92FF921A
:100E10000F931F93CF93DF938091000105E010E0C3
:100E2000882311F010E000E0C801855B9E4F7C0133
:100E30008DE1C82E81E0D82EE701AA24A394B12C1D
:100E40008824839424E0922E78801882D6018D9194
:100E50006D01E82FE295EF70F0E091A18F709501A0
:100E600001C0220F8A95EAF7892F822B81A382A1E4
:100E7000622E6094862182A3B0EABA95F1F746E12A
:100E800051E090E080E0DA017D91AD01A72FA295BD
:100E9000AF70B0E09096BC91A8817F70250102C030
:100EA000440C551C7A95E2F7B2016B2309F052C04D
:100EB0006A2D082E01C0660F0A94EAF76A2B688330
:100EC000019687309105F9F681A1862181A382A13F
:100ED000282B22A38881781659F0809255010E9410
:100EE000302190935701809356018BB189258BB99E
:100EF000219682E2C81681E0D80609F0A5CF80913C
:100F000055018823A9F080915601909157010E94C4
:100F10003C21069768F0F801E05CFE4F80E0D701C5
:100F20009D917D0191938F5F8530C9F71092550196
:100F300081E0DF91CF911F910F91FF90EF90DF90B3
:100F4000CF90BF90AF909F908F907F906F905F9069
:100F50004F90089560E0B2CFCF93DF93809100016E
:100F6000D0E0C0E0882311F0C5E0D0E00E94FB088B
:100F7000009789F4C05CDE4F30E020E0F901E65ACA
:100F8000FE4F408149932F5F3F4F25303105B1F728
:100F9000DF91CF91089581E090E0FACFCF930E9446
:100FA000FC06C82F0E94AC07892BE1F05D98809168
:100FB0004A018F5F80934A01863078F0809100016A
:100FC000F0E0E0E0882311F0E5E0F0E0E05CFE4FC7
:100FD000108211821282138214820E94A40C8C2F20
:100FE000CF9108955D9A10924A01F7CF0E94FC06B6
:100FF00080910001E5E0F0E0882311F0F0E0E0E00E
:10100000E05CFE4F90E080E02191DC01A65ABE4FEB
:101010002C93019685309105B9F70895E82FF0E0FB
:10102000E05CFE4F808108950895E8EDF0E0808156
:10103000806180838AE18A95F1F700C08091D900B0
:10104000817008950E941508809300010E94150880
:10105000882321F00E948908789408950E9427210E
:101060000E948D08F9CF0E94B1060E94F607FDCFBD
:101070000E9422080E941508811102C00E943308B4
:101080000895509A08955098589A0895589A089536
:101090000E944308489BFECF80E88A95F1F70895A7
:1010A0000E94430898E080E029B1880F2170822BCC
:1010B00020E82A95F1F725E02A95F1F700009150F4
:1010C00099F708950F931F93CF93082F0E9441081B
:1010D000C8E010E0C15020F4CF911F910F91089506
:1010E000C8010C2E02C0959587950A94E2F780FFFF
:1010F00006C00E94460880E88A95F1F7EBCF589821
:10110000FACF0E944108589880E88A95F1F70C942C
:1011100046080E9441080C9446080E944308E89A39
:10112000E9E6F0E080818C7F808308951F920F9222
:101130000FB60F921124EF92FF921F932F933F93BC
:101140004F935F936F937F938F939F93AF93BF93CF
:10115000CF93DF93EF93FF930E948108D0E0C0E02C
:1011600010E0CE01865A9E4F7C01FC0180810E94D6
:1011700062080E948108F7018081180F2196C5300E
:10118000D10579F7812F0E9462080E948108F0E85A
:10119000FA95F1F780E48A95F1F70E945008809360
:1011A00059010E948108C09159010E945008D82F0E
:1011B0000E9481080E94430880915801DC17C9F001
:1011C000816080935801FF91EF91DF91CF91BF91A2
:1011D000AF919F918F917F916F915F914F913F91CF
:1011E0002F911F91FF90EF900F900FBE0F901F90C7
:1011F00018958E7FE6CFEF92FF921F93CF93DF93E8
:10120000F8940E944108589825E02A95F1F70000CB
:101210000E9443080E94460830E83A95F1F7489B3F
:1012200009C0789481E090E0DF91CF911F91FF9009
:10123000EF9008950E944808D0E0C0E010E00E94BE
:101240005008FE01E65AFE4F7F0180830E94480845
:10125000F7018081180F2196C530D10581F70E94D2
:101260005008C82F0E944808C113DBCF8091590154
:101270000E9462080E944808809159010E946208F9
:101280000E9448080E9441080E944608789490E015
:1012900080E0CACF0C94AD06CF93DF93EC010E949F
:1012A0006720BE0190E080E0DF91CF910C94331E67
:1012B000CF93FB01833D2CE59207E9F028F4823DB2
:1012C0009C4581F0C1E02DC0843D2CE59207F9F0EA
:1012D000853D9C45B9F7C28180E1CC2329F10E946C
:1012E000951E07C0C281CC23E1F081E090E00E940E
:1012F0004C09C0E016C0C28181E0CC2359F00E94A5
:10130000951E40E162E081E00E94510CF2CFC28163
:1013100082E0F3CF0E94B61E40E162E081E00E94CD
:10132000510C8C2FCF9108950E94B61EFACF81E008
:1013300008950C9458090E94441A2FEF84E39CE00E
:10134000215080409040E1F700C0000087E797E718
:1013500090930108809300080C948C210F931F93A5
:10136000CF93DF938C01FC01C081D181CE010E941B
:10137000311FBE010E94AF0CEC01B8010E94990917
:10138000882309F4FFC0B801CE010E94130F8823FF
:1013900009F4F8C0C23CFCE5DF0709F42AC108F0F3
:1013A00059C0CB3B9CE5D90709F4FCC070F5C531A9
:1013B000FCE5DF07D0F4C2308CE5D80708F093C114
:1013C000C1159CE5D90709F4D8C0C130DC4509F442
:1013D000DFC081E08093640180936501C801DF91E3
:1013E000CF911F910F910C949709C531FCE5DF0750
:1013F00009F437C2CA3BDC4561F7F80182818823D2
:1014000009F4C0C00E947C12BDC0CE3B9CE5D90748
:1014100009F4DEC080F4CC3BFCE5DF0709F4CDC065
:10142000CD3BDC45B1F6F8018281882309F4AAC0DE
:101430000E942311A7C0F8018281C03CFCE5DF07B0
:1014400009F4D2C008F4CBC0882309F49BC00E94E1
:101450008A1198C0C93CECE5DE0709F417C108F011
:1014600042C0C53C8CE5D80709F4D3C0F8F4C33CAE
:10147000ECE5DE0709F4C4C0C43CDC4509F0A9CFA3
:10148000F8018281882309F47DC00E94F40F623044
:1014900071058105910540F00E94F40F65307105DA
:1014A0008105910508F491C082E0B0C0F801828105
:1014B000C73CFCE5DF0709F4D5C008F4BFC08823AA
:1014C00009F460C00E94F40F653171058105910532
:1014D00040F00E94F40F673171058105910508F411
:1014E00074C085E193C0CC3CECE5DE0709F496C1FD
:1014F000D0F4CA3C8CE5D80709F4CFC0CB3CDC451E
:1015000009F067CFF8018281882309F470C1109235
:1015100064010E943021909361018093600182E018
:101520000E946F172FC0C03DECE5DE0709F4CBC069
:10153000C13DFCE5DF0709F4CFC0CD3CDC4509F037
:1015400048CFF801828181116DC1809165018111BF
:1015500086C180916201909163010E943C21883C88
:10156000910508F07CC180E20E94761788E20E9413
:10157000451688E20E94201705C0F801828181117A
:101580000E949B0980E0DF91CF911F910F910895F8
:10159000F80182818823B1F38091E9018160809311
:1015A000E901F0CFF8018281882361F30E94F71FDF
:1015B000827259F00E943F12E5CFF80182818823A0
:1015C00009F30E94F71F8272A9F30E943512DACF45
:1015D000F80182818823B1F20E943B11D3CF882386
:1015E00089F20E945A11CECF882361F20E947211B3
:1015F000C9CFF8018281882329F20E94A211C2CFAB
:10160000F8018281882309F4BDCF81E00E94BA11DC
:10161000B9CFF8018281882309F4B4CF0E94F40F76
:10162000663071058105910538F00E94F40F68302D
:1016300071058105910548F286E0E8CF882309F419
:10164000A1CF0E94F40F693071058105910540F02A
:101650000E94F40F6E3071058105910508F4B5CF35
:1016600089E0D4CF882309F48DCF0E94F40F6F3026
:1016700071058105910540F00E94F40F64317105F8
:101680008105910508F4A1CF8FE0C0CFF8018281D8
:10169000882309F477CF88E1B9CFF80182818823C4
:1016A00009F470CF0E94F40F69317105810591052D
:1016B00040F00E94F40F623271058105910508F433
:1016C00084CF89E1A3CFF8018281882309F45ACF1E
:1016D00080E00E94FE2756CFF8018281882309F41A
:1016E00051CF82E0F6CFF8018281882309F476CECB
:1016F0000E945420811102C00E9433200E946C205D
:1017000090E09093340280933302FE01E350FC4555
:10171000809133028160E231F105C8F4EE56F44F56
:101720000C942E30A40BB00BB40BB80BBC0BC00B3D
:10173000C40BC80BCC0BD00BD40BD80BDC0BE00BC1
:10174000E40BE80BEC0BF00B80913302826080938A
:101750003302809133020E9470200E94441A12CFFB
:10176000809133028460F3CF809133028860EFCFA1
:10177000809133028061EBCF809133028062E7CFAA
:10178000809133028064E3CF809133028068DFCFA1
:10179000809133028460EACF809133028E7FD7CF6D
:1017A000809133028D7FD3CF809133028B7FCFCF57
:1017B00080913302877FCBCF809133028F7EC7CF5A
:1017C000809133028F7DC3CF809133028F7BBFCF57
:1017D000809133028F77BBCF809133028B7FEACF2A
:1017E00090913302892F97FB87F98058B0CF809171
:1017F000640181110FC080916001909161010E948C
:101800003C21883C910530F486E20E94451686E230
:101810000E94201782E00E947617B4CEF8018281E0
:10182000882351F0109265010E943021909363014A
:101830008093620180E274CE8091650181110FC0B6
:1018400080916201909163010E943C21883C910546
:1018500030F487E20E94451687E20E94201780E25A
:10186000DACF0E94F71FF8019281992381F08A7ADA
:1018700091E009F490E090935F01811106C089E244
:101880000E94801F0E94C41F7DCE85E3F9CF809106
:101890005F01811104C089E20E94871FF3CF85E3B5
:1018A000FBCF8F929F92AF92BF92CF92DF92EF9237
:1018B000FF920F931F93C12CD12C7601C3949701F3
:1018C000860104C0000F111F221F331F6A95D2F733
:1018D0004601570104C0880C991CAA1CBB1C8A95A0
:1018E000D2F7D501C401802B912BA22BB32B0091F1
:1018F000D4011091D5012091D6013091D701082350
:1019000019232A233B2380179107A207B30769F401
:10191000842F1F910F91FF90EF90DF90CF90BF9099
:10192000AF909F908F900C94951E842F1F910F91D4
:10193000FF90EF90DF90CF90BF90AF909F908F90EF
:101940000C94B61E0C944A090C94AF0608950C949E
:10195000A60C0C94A70C90E080E008950895972FB2
:1019600070E027E0929F600D711D1124FB0196E449
:10197000899FE00DF11D1124EE0FFF1FEE50FF4F68
:10198000859194910895FC01EE0FFF1FE25CF54FE5
:10199000859194910895CF93DF930E94AF0C0E949C
:1019A0006F0EEC018115904508F043C0C11580E42D
:1019B000D80708F00AC1C83ED10528F5C03ED105B8
:1019C00008F09EC0C83AD10580F4C53AD10508F0A8
:1019D0008DC0C130D10509F493C020F0C430D105C9
:1019E00008F08EC0D0E0C0E08BC0CD3BD10508F43C
:1019F0008BC0CE01805C9109C03CD10598F30E9458
:101A0000C30CEC017DC0C11520E2D20750F4C11512
:101A100081E0D80708F074C0C03FD10518F3D06545
:101A20006FC0C11520E3D20708F0C5C0CE019F707A
:101A3000E6CFC11585E5D80760F5C11524E5D207C5
:101A400008F0F1C0C11582E5D80750F4C11521E5B1
:101A5000D20708F4BDC0DC2FCC27C16FD06A50C0BC
:101A60009C2F969596959E0123703327C115D345DB
:101A700008F0CAC0C1E0D0E002C0CC0FDD1F2A953B
:101A8000E2F720E2929FC0011124C82BD92BDC6819
:101A900037C0C11529E5D20780F4C11588E5D807FC
:101AA00008F0C6C0C11526E5D20708F09BCFDC2F91
:101AB000CC27CC27DF71D06223C0C1158AE5D807B7
:101AC00008F4BBC0CE0190568115904208F08ACF31
:101AD0008D2F8F710E94EF0EDD27D06290E0982F3E
:101AE000882788279F71C82BD92B0AC0C53AD105F2
:101AF00009F4B0C0C63AD10509F4AFC0C3E8D0E4D8
:101B0000CE01DF91CF910895C83AD10509F4A8C05C
:101B1000C93AD10509F4A7C0CA3AD10509F4A6C04B
:101B2000CB3AD10509F4A5C0CC3AD10509F4A4C03B
:101B3000CB3BD10509F4A3C0CC3BD10509F4A2C02D
:101B4000CD3AD10509F4A1C0C03BD10509F4A0C02C
:101B5000CE3AD10509F49FC0CF3AD10509F49EC011
:101B6000C13BD10509F49DC0C23BD10509F49CC01D
:101B7000C33BD10509F49BC0C43BD10509F49AC00D
:101B8000C53BD10509F499C0C63BD10509F498C0FD
:101B9000C73BD10509F497C0C83BD10509F496C0ED
:101BA000C93BD10509F495C0CA3BD10509F094C0E1
:101BB000CAE2D6E4A5CFCE019927D3FF03C0EC013A
:101BC000D86C9ECFEC01D06C9BCFDF70D06A98CFE1
:101BD000CE01E4E096958795EA95E1F783709C2F16
:101BE000937021E030E002C0220F331F9A95E2F794
:101BF0003C68382BC695C695C37080E2C89FE0014B
:101C00001124C22BD32B7CCFC1E0D0E002C0CC0F7B
:101C1000DD1F2A95E2F720E2929FC0011124C82B14
:101C2000D92BDA686DCFDC2FCC27C46FD06A68CF90
:101C3000DC2FCC27C06FD06A63CFCE0134E09695FD
:101C400087953A95E1F78F70CF70C06ED0E0D06A7B
:101C5000D82B56CFC1E8D0E453CFC2E8D0E450CF60
:101C6000C2EED4E44DCFC9EED4E44ACFCAEED4E4F8
:101C700047CFC5EBD4E444CFC6EBD4E441CFC3EBAC
:101C8000D4E43ECFC4EBD4E43BCFC7EBD4E438CFAD
:101C9000CCECD4E435CFCDECD4E432CFC3E8D5E4FA
:101CA0002FCFCAE8D5E42CCFC2E9D5E429CFC4E9C7
:101CB000D5E426CFC1E2D6E423CFC3E2D6E420CFD9
:101CC000C4E2D6E41DCFC5E2D6E41ACFC6E2D6E41C
:101CD00017CFC7E2D6E414CFC0E0D4E411CF8238E6
:101CE000910549F1B0F48133910509F45CC048F4E1
:101CF0008932910509F452C08A32910509F458C01D
:101D000008958533910509F444C08933910599F00C
:101D10000895833E910531F138F4803E910591F0AC
:101D2000823E9105B1F00895863E910511F1873EFE
:101D3000910541F10895209133022370C9F080EE9E
:101D400090E008952091330220FF12C089E390E0D3
:101D500008952091330222FF0BC024FF2EC090E093
:101D600080E008952091330222FD2AC024FDF7CFA0
:101D700008952091330223FFFBCF24FDF0CF87EE9F
:101D800090E008952091330223FFF0CF86EE90E09B
:101D900008952091330225FD16C008952091330245
:101DA00025FD14C008952091330226FD12C0089528
:101DB0002091330226FD10C0089583EE90E008952F
:101DC00082EE90E0089589E290E0089585E390E046
:101DD00008958AE290E0089581E390E0C9CF909160
:101DE000330292FF06C0282F2871283069F4877FBC
:101DF000846093FF06C0282F2871283161F4877E04
:101E0000846194FD877E0895282F2471243089F7FA
:101E10008B7F8860EECF282F2471243191F78B7E41
:101E20008861EFCF08950F931F93CF938C01FB012F
:101E30008281811106C0C1E08C2FCF911F910F913B
:101E40000895C0917301C11125C006311C4599F751
:101E50000E94120F81E0809373010E9430219093C1
:101E600072018093710110926601109268011092C4
:101E7000670110926A011092690110926C01109230
:101E80006B0110926E0110926D0110927001109210
:101E90006F01D2CF80917101909172010E943C211B
:101EA000883C910540F680916601E82FF0E0EE0F46
:101EB000FF1FE959FE4F118300838F5F80936601F6
:101EC000C0E0BACFCF92DF92EF92FF920F931F93B1
:101ED000CF93DF93E901662309F466C0E42EF12C69
:101EE000EFEFF0E0E61BF109EE9D8001EF9D100D94
:101EF000FE9D100D1124212FE12FFF27EE1AFF0A5E
:101F00005CE3C52ED12CB6010E940630FB01BC015A
:101F1000E69EC001E79E900DF69E900D1124B6013D
:101F20000E940630E230F10589F168F4812F262FF6
:101F3000210F309781F0242F461B319761F080E00C
:101F400020E040E008C0E430F10551F128F1842F91
:101F5000861B3597A1F7E42FF0E0E85AF54F44913E
:101F6000E22FF0E0E85AF54F9491E82FF0E0E85ABC
:101F7000F54FE49149839883EA83DF91CF911F91D4
:101F80000F91FF90EF90DF90CF900895862F810FF3
:101F9000E42F412F2E2FDFCFE42FE61B842FF9CF24
:101FA000842F462F410FD7CF842F242FD4CF88E002
:101FB00090E00C943C30AB01BC0188E090E00C94C4
:101FC0005A30E1E0F2E083E08083109202028FEF6A
:101FD00082838383609101027091020280910302E7
:101FE000909104020C94DB0F6091010260FF06C027
:101FF00066956F7370E090E080E0089560E070E0B7
:10200000CB01089580910102E9E0F2E080FF06C073
:102010006CE070E089E092E00C940A151182108265
:102020001282339682E0ED32F807C1F7F1CF90913A
:10203000010290FF0CC0E9E0F2E0818360834283FB
:10204000339692E0ED32F907C1F70C94021008952F
:10205000EF92FF920F931F93CF93DF9300D01F92C5
:10206000CDB7DEB7182FE92EF62E042F809101028E
:1020700090910202A0910302B091040280930502A4
:1020800090930602A0930702B09308028091010288
:1020900080FF1FC09E012F5F3F4F812F9E2D0E940A
:1020A000620F8091050210FB87F980930502169557
:1020B000809106028078812BE0FA87F980930602EE
:1020C000F0920702009308024B8169818A810E9485
:1020D00017100F900F900F90DF91CF911F910F91DC
:1020E000FF90EF9008956F927F928F929F92AF92A0
:1020F000BF92CF92DF92EF92FF920F931F93CF93F5
:10210000DF93EC01662E742E8091010280FF8CC05B
:10211000982F9E77923079F5CE010E9428108091F9
:1021200001029C2FC0FB87F9809301029695809154
:1021300002028078892BD0FB87F98093020260929B
:102140000302709204026091010270910202809178
:10215000030290910402DF91CF911F910F91FF90A4
:10216000EF90DF90CF90BF90AF909F908F907F9037
:102170006F900C94DB0FE82FE695EF739EE39E0FB4
:102180009F73943018F470900402C9CF9AE39E0FA5
:102190009F73993070F4881F8827881F90910202DE
:1021A000292F220FC22FC82B97FB992790F9D92FDF
:1021B000B6CF87E28E0F8F738A3008F0B0CFE95127
:1021C000FF0B2FEFE0FF21E0EE7FE25CF54F859102
:1021D00094916CE070E00E94063026035001279F26
:1021E000B00C11247E0188E9E81A8EEFF80A09E0A4
:1021F00012E08DE2C82E82E0D82E98E6892E99242E
:102200009394C701B4010E9406309801472D662DB2
:102210000E94620FEA0CFB1C0D5F1F4FC016D10617
:1022200081F70E9402107BCFDF91CF911F910F9118
:10223000FF90EF90DF90CF90BF90AF909F908F90E6
:102240007F906F900895E1E0F2E02081221F222725
:10225000221F30910202432F440F842F822B37FB21
:10226000992790F9089668E671E00E941A30438138
:1022700062810C94731020910102221F2227221FD9
:1022800030910202432F440F842F822B37FB992772
:1022900090F98830910540F4805A9E4F4091040295
:1022A000609103020C947310089768E671E00E9435
:1022B0001A30F4CF60910302683F90F4685F809118
:1022C0000102881F8827881F90910202292F220F60
:1022D00097FB992790F940910402822B0C9473107C
:1022E0006FEFEDCF60910302683090F068508091FD
:1022F0000102881F8827881F90910202292F220F30
:1023000097FB992790F940910402822B0C9473104B
:1023100060E0EDCF40910402483F90F4485F809127
:102320000102881F8827881F90910202292F220FFF
:1023300097FB992790F960910302822B0C947310FC
:102340004FEFEDCF40910402483090F0485080911B
:102350000102881F8827881F90910202292F220FCF
:1023600097FB992790F960910302822B0C947310CC
:1023700040E0EDCF9091010290FF42C09178811131
:1023800026C0926090930102609101027091020256
:1023900080910302909104020E94DB0F8091010260
:1023A000982F9E779230D9F410928901881F882740
:1023B000881F90910202292F220F97FB992790F9ED
:1023C0004091040260910302822B0C9473108332BB
:1023D00010F09464D7CF8F73880F982BD3CF982F9A
:1023E00096959F732EE3290F2F73273120F491E0E8
:1023F00090938901DBCF995D9F739A30B8F6D4CF63
:1024000008958091E90181608093E90181E08093E2
:102410008A010E945420811104C00E9433200E942E
:10242000E10F0E94D70F6093010270930202809324
:102430000302909304026E7761F40E94E10F0E9400
:10244000D70F60930102709302028093030290936E
:10245000040281E0809389018091010280FF04C021
:1024600086958F730C94BA11089580910102869518
:102470008F738F5F833208F081E00C94BA118091E2
:10248000010286958F73815009F482E20C94BA118F
:10249000CF93DF93C1E0D2E088818160888360912F
:1024A00001027091020280910302909104020E9445
:1024B000DB0F888186958F73DF91CF910C94BA11D1
:1024C000E1E0F2E080818E7F808360910102709173
:1024D000020280910302909104020E94DB0F10928D
:1024E00089012FEF80E792E0215080409040E1F792
:1024F00000C000000C9402108091010280FD0C9439
:1025000060120C944812CF93C82F8091870190914C
:1025100088010E943C21EC2FF0E0EC5AF54FE49149
:10252000E817190611F008F042C00E94302190937C
:102530008801809387016091860170E090E080E0DF
:102540000E94072E20E030E04FE753E40E942A2D3E
:102550002BED3FE049E450E40E94302F0E949D2F74
:102560000E94A42D2BE43AE34EE25FE30E94BD2CCF
:1025700020EF3BEF48ED52E40E94302F0E94D62D11
:10258000462F80910102881F8827881F90910202A0
:10259000292F220F97FB992790F960910302822B34
:1025A0000E942810809186018F5F80938601CF91D1
:1025B0000895CF93C82F80918401909185010E9446
:1025C0003C21EC2FF0E0EF5AF54FE491E8171906A3
:1025D00009F0E8F40E9430219093850180938401F2
:1025E00040910402609103028091820190918301E5
:1025F0000E9428108091820190918301019668E6E3
:1026000071E00E9406309093830180938201CF9104
:102610000895CF92DF92FF920F931F93CF93DF9392
:10262000F82E80918001909181010E943C21EF2D34
:10263000E695F0E0E25BF54FE491E817190609F042
:10264000A8F50E943021909381018093800109E0D8
:1026500012E0D0E0C0E088E6C82EDD24D39480915B
:102660007E0190917F018C0F9D1FB6010E94063064
:10267000980140910402609103020E94620F6E96DD
:102680000D5F1F4FC83681E0D80749F70E9402103E
:1026900080917E0190917F01F0FE10C00196BE01F5
:1026A0000E94063090937F0180937E01DF91CF914D
:1026B0001F910F91FF90DF90CF9008950197F2CF77
:1026C000CF92DF92EF92FF920F931F93CF93DF93FE
:1026D000C82FFF24FA9480FD02C0FF24F394809158
:1026E0007C0190917D010E943C21C695EC2FF0E089
:1026F000E55BF54FE491E817190611F008F051C0B9
:102700000E94302190937D0180937C0109E012E0CA
:10271000D0E0C0E0F80111821082128294E0C92E4C
:10272000D12CE12C80917B018E0D87FD845F082EDA
:10273000000C990BC817D907E9F4809104028C9D0D
:10274000A0018D9D500D11245595479555954795A0
:1027500080910102881F8827881F90910202592FBB
:10276000550F97FB992790F9980160910302852BEB
:102770000E94620FEF0CF1E0CF1AD10899F6219672
:102780000D5F1F4FCC30D10529F60E9402108091B9
:102790007B0191E0F91210C081110CC08BE0809395
:1027A0007B01DF91CF911F910F91FF90EF90DF9010
:1027B000CF9008958150F3CF90E00196BE010E9422
:1027C0001A30EDCF0F931F93CF93DF93C82F8091D3
:1027D000790190917A010E943C21EC2FF0E0E85BB6
:1027E000F54FE491E817190611F008F052C00E9465
:1027F000302190937A0180937901C9E0D2E0FE0103
:10280000118210821282339682E0ED32F807C1F70E
:1028100010E000E080917801082E000C990B081759
:102820001907E4F180910201082E000C990B801722
:102830009107A4F180910102881F8827881F909139
:102840000202592F550F97FB992790F99E0140914D
:10285000040260910302852B0E94620F0F5F1F4FDD
:1028600023960C301105B1F60E94021080910101EF
:1028700090917801980F9093780120910201280F90
:1028800020930201121614F49B301CF08195809362
:102890000101DF91CF911F910F9108951982188244
:1028A0001A82DCCFEF92FF920F931F93CF93DF93A7
:1028B00080917601909177010E943C21883E93405F
:1028C000C8F10E9430219093770180937601C091E6
:1028D0007401D09175012196C170DD27D0937501E7
:1028E000C093740189E0E82E82E0F82E10E008E73A
:1028F000812F86958C0F9D2F911D817099279701AF
:102900004091040260910302FC010E9FC0010F9FE1
:10291000900D11240E94620F1F5FF3E0EF0EF11C77
:102920001C3031F7DF91CF911F910F91FF90EF9005
:102930000C940210DF91CF911F910F91FF90EF90B7
:10294000089580918901882391F190910102892F46
:1029500086958F732EE3280F2F73243018F482503E
:102960000C9483122AE3280F2F73233018F4865017
:102970000C94D91227E3280F2F73263018F48950AE
:102980000C94091321E3280F2F73263018F48F506D
:102990000C9460132BE2280F2F73233018F4855109
:1029A0000C94E2139E77903311F40C945214089512
:1029B0003BB1242F209523233BB1432B3FB7F89401
:1029C000FC01680F791FE617F70711F43FBF089560
:1029D000819198E04BB9000000C087FF2BB9880FA8
:1029E000000000C000C000C02BB900C09A9591F74C
:1029F000EACF2AB1242B2AB99B01220F331F620F81
:102A0000731F0E94D81487EC90E00197F1F700C083
:102A10000000089548E00C94F9149093900180937D
:102A20008F010895E0918F01F0919001309721F08E
:102A30000190F081E02D099480E00895E0918F01EC
:102A4000F0919001309721F00280F381E02D0994FC
:102A50000895E0918F01F0919001309721F004806A
:102A6000F581E02D0994089520918D0130918E011A
:102A70002817390771F090938E0180938D01E091B2
:102A80008F01F0919001309721F00680F781E02DC1
:102A90000994089520918B0130918C0128173907F2
:102AA00071F090938C0180938B01E0918F01F091F4
:102AB0009001309721F00084F185E02D099408956C
:102AC0000C94380881E008950E9427210E94B106E5
:102AD0000E949D210C940112BF92CF92DF92EF923F
:102AE000FF920F931F93CF93DF93CDB7DEB72A9753
:102AF0000FB6F894DEBF0FBECDBF0E94CE070E9476
:102B00006215882309F471C082E9C82E81E0D82EAD
:102B100010E000E0B02E802F0E940E08E82EF60193
:102B2000F1906F01F81609F45AC08091E90181FD16
:102B30000E94140890E080E0FE242F2D30E0482F02
:102B4000B901082E02C0759567950A94E2F760FFF7
:102B500041C08E83BF8281E090E06C0102C0CC0C4A
:102B6000DD1C4A95E2F72E2D30E02C213D21232B50
:102B700009F480E088870E9430218160782F9A874D
:102B800089874E815F8168858A850E941616F801C3
:102B9000EE56FE4F80818C2580830E9430230E9458
:102BA000121590919101891789F10E941215809355
:102BB00091012A960FB6F894DEBF0FBECDBFDF910C
:102BC000CF911F910F91FF90EF90DF90CF90BF902A
:102BD0000C94A90C01968730910509F0B0CF0F5FD6
:102BE0001F4F0A30110509F095CF8FEF89838A8333
:102BF0001B820E9430218160782F9D838C834981C4
:102C00005A816B818D810E941616C7CF2A960FB606
:102C1000F894DEBF0FBECDBFDF91CF911F910F9112
:102C2000FF90EF90DF90CF90BF900895CF93DF9308
:102C3000CDB7DEB72B970FB6F894DEBF0FBECDBF72
:102C40004F83588769877A878B871E821D8285E02C
:102C5000FE013796DE01119601900D928A95E1F7FB
:102C600049815A816B817C818D819E812B960FB623
:102C7000F894DEBF0FBECDBFDF91CF910C94041D41
:102C8000FC01808191810C94731FCF93C82F8823FE
:102C900009F4D4C08238C1F40E94121581FDCEC05F
:102CA00089E30E94801F0E94C41F2FEF81EE94E0F1
:102CB000215080409040E1F700C0000089E30E946D
:102CC000871FCF910C94C41F8338A1F40E94121562
:102CD00080FDB4C083E50E94801F0E94C41F2FEFB7
:102CE00081EE94E0215080409040E1F700C0000068
:102CF00083E5E5CF8438A1F40E94121582FD9EC0C1
:102D000087E40E94801F0E94C41F2FEF81EE94E091
:102D1000215080409040E1F700C0000087E4CFCF11
:102D20008CEF8C0F813A48F48C2F0E94352581114D
:102D300085C08C2F0E94801FC4CF80E28C0F88300A
:102D400048F4C77081E001C0880FCA95EAF70E9475
:102D5000FA1FB7CF8BE58C0F833068F481E890E0E1
:102D6000C53A31F083E890E0C63A11F482E890E089
:102D7000CF910C94341588E58C0F853108F05EC036
:102D800082EE90E0C83A09F456C089EE90E0C93A64
:102D900009F451C08AEE90E0CA3A09F44CC085EBC0
:102DA00090E0CB3A09F447C086EB90E0CC3A09F4C6
:102DB00042C083EB90E0CB3BF1F184EB90E0CC3B65
:102DC000D1F187EB90E0CD3AB1F18CEC90E0C03BD3
:102DD00091F18DEC90E0CE3A71F183E891E0CF3A39
:102DE00051F18AE891E0C13B31F182E991E0C23BC7
:102DF00011F184E991E0C33BF1F081E292E0C43B40
:102E0000D1F083E292E0C53BB1F084E292E0C63BB0
:102E100091F085E292E0C73B71F086E292E0C83B18
:102E200051F087E292E0C93B31F090E080E0CA3B8C
:102E300011F48AE292E0CF910C944A15CF91089553
:102E4000882309F44BC0823871F40E94121581FF67
:102E500045C089E30E94801F0E94C41F89E30E942D
:102E6000871F0C94C41F833859F40E94121580FFE9
:102E700035C083E50E94801F0E94C41F83E5EFCF09
:102E8000843859F40E94121582FF28C087E40E94FA
:102E9000801F0E94C41F87E4E2CF9CEF980F913AF5
:102EA000F0F290E2980F983050F4877091E001C0F2
:102EB000990F8A95EAF7892F0E940020D2CF9BE5CF
:102EC000980F933020F490E080E00C943415885AE9
:102ED000853120F490E080E00C944A150895882311
:102EE00021F00E94FA1F0C94C41F0895882321F03A
:102EF0000E9400200C94C41F08958F929F92AF925D
:102F0000BF92DF92EF92FF920F931F93CF93DF93C5
:102F10007C01D62FC72FFC01058102950F7012810D
:102F200011110E9419200E94BD1FD82E882371F014
:102F3000112331F180E28D0F883010F182E00E9480
:102F4000A71F0E94BD1F91E0D82ED926BC2EB29497
:102F50009FE0B922EB2DF0E0E055F84E0C942E30B6
:102F6000C217C2171218121854187C185B185B1875
:102F7000BE185B1859195919E3195B185B18EC193D
:102F8000D12CE4CF0C2F0F70C07F11F00295007F81
:102F90001123A9F0002359F080E28D0F883010F042
:102FA000D11109C0802F0E94FA1F0E94C41F8D2FCB
:102FB0000E94451614C0802F0E940B20F6CF8D2F43
:102FC0000E942017002359F080E28D0F883010F006
:102FD000D11124C0802F0E9400200E94C41FDD2038
:102FE00009F401C20E949A1F80FDFDC1F7011282FF
:102FF0000E94941F0E94951EC7010E94FF190E9403
:10300000941FDF91CF911F910F91FF90EF90DF9070
:10301000BF90AF909F908F900C94B61E802F0E940F
:103020001120DBCFFC2FFF70BF2EC07FC03219F004
:10303000B29480EFB822DD2369F0D13029F1112359
:1030400069F1002359F0F701858180FFB0CF8F70BF
:10305000858304C0112361F0011104C08B2D0E94EF
:103060006F17BDCF8B2D0130D1F70E942D20B7CF28
:10307000011106C00E9430208B2D0E947617AFCF21
:10308000013009F4ACCFF6CF112321F0063008F05F
:10309000A6CFE4CF053008F0A2CFEECF002361F336
:1030A0008D2F0E9420179BCF8C2F8695869583703D
:1030B00079F08130B9F098E0B91609F49BC0B916DF
:1030C00008F48DCF86EF8B0D823008F493C087CF44
:1030D0008D2F9C2F9370111102C090E080E00E9410
:1030E00034157DCF8D2F9C2F9370111102C090E06D
:1030F00080E00E944A1573CF112309F1D53F99F062
:10310000D63FB9F0D43F49F480912D0290912E0220
:10311000816090932E0280932D028D2F0E94392280
:103120000E9425235CCF80912D0290912E02826017
:10313000F0CF80912D0290912E028460EACFD53F8E
:1031400089F0D63FA9F0D43F49F480912D029091A7
:103150002E028E7F90932E0280932D028D2F0E943F
:10316000A122DECF80912D0290912E028D7FF2CF91
:1031700080912D0290912E028B7FECCF8C2F83704B
:1031800009F04BC0111136C02D2F229526952770BE
:10319000220F220F6D2F6F70862E912CB12CA12C37
:1031A000022E04C0880C991CAA1CBB1C0A94D2F7DE
:1031B00060E070E0CB01D4FF0FC06FE070E080E012
:1031C00090E004C0660F771F881F991F2A95D2F7D9
:1031D0006095709580959095C695C695C370C230E0
:1031E00071F0A0F4682979298A299B29C13091F0CE
:1031F0000E94471E0E9412150E94A90CF0CE682959
:1032000079298A299B290E94591EF4CF0E94471EC2
:10321000C501B4010E94351EEDCF8695112311F032
:103220008C2F8170882331F32D2F229526952770BE
:10323000220F220F6D2F6F70862E912CB12CA12C96
:10324000022E04C0880C991CAA1CBB1C0A94D2F73D
:1032500060E070E0CB01D4FF0FC06FE070E080E071
:1032600090E004C0660F771F881F991F2A95D2F738
:103270006095709580959095C695C695C370C2303F
:1032800051F080F4682979298A299B29C13071F08D
:103290000E940C1FAFCF682979298A299B290E9497
:1032A0001E1FA8CF0E940C1FC501B4010E94FA1E68
:1032B000A1CFE0E2ED0FE53108F066C0F0E0ED5996
:1032C000F64E0C942E3078197819781978197819E7
:1032D0007819781978197819781978197819781966
:1032E000781978197819891997199E19A519AF199C
:1032F000DF708C2F8F71112331F00E94951E8D2F5E
:103300000E946F17D8CE0E94B61E8D2F0E9476178E
:10331000D2CE112341F0053008F0CDCE8C2F8F7125
:103320000E94D91EC8CE063008F0C5CEF7CF8C2F2C
:103330008F71112339F00E94951EBDCE8C2F8F7195
:103340001123C9F30E94B61EB6CE112329F08C2F8B
:103350008F710E94801EAFCE0E947B1EACCE1123C7
:1033600049F0CF718C2F0E94951E63E08C2F0E9434
:103370009E1FA1CE81E00E94A71F023008F49BCEC1
:1033800082E00E94A71F97CE112349F0002321F06D
:103390008D2F0E9445168FCE8C2F8F71CCCF00239E
:1033A00079F0D93349F4FFEF27EE83E0F150204064
:1033B0008040E1F700C000008D2F0E9420177BCED7
:1033C0008C2F8F71BFCF4C2F4F706D2FC7010E9474
:1033D000AB0C0E94AD1D03CE4C2F4F706D2FC7015B
:1033E0000E94AE0CFCCDDF91CF911F910F91FF9009
:1033F000EF90DF90BF90AF909F908F9008950F93C4
:103400001F93CF93DF93EC01988189812B813C81BD
:10341000232B39F08F3F19F481E09F3F19F080E0B2
:1034200001C081E080FD17C0CE010E94AE09882353
:1034300091F0688179818A810E947D1F8C010E94B0
:10344000301F0E94321EB801CE01DF91CF911F9133
:103450000F910C947D17DF91CF911F910F910895DB
:103460000E9419200E942A200E948E1F0E94C41FC1
:103470000E94BB230E94252390E080E00E94341527
:1034800090E080E00C944A150E9408200C94301AB9
:103490000E94731FE92FE295EF70E250EE30E0F4E6
:1034A000F0E0EB5AF54E0C942E30631A631A6C1A46
:1034B0006C1A6E1A6C1A6C1A6C1A631A631A731AE5
:1034C0006C1A6C1A731A803F19F020F4803E20F4B5
:1034D00081E00895843FE1F380E00895803EC0F3E9
:1034E000813FD1F7F5CF93FB882780F90895CF93DB
:1034F000DF9300D000D01F92CDB7DEB70F900F90B2
:103500000F900F900F90DF91CF910895CF93DF939D
:1035100000D000D000D0CDB7DEB726960FB6F89415
:10352000DEBF0FBECDBFDF91CF9108951F93CF9324
:10353000DF93C0919C0116E080919D018C1304C023
:10354000DF91CF911F910895D0E01C9FF0011D9F46
:10355000F00D1124E256FE4F40815181628173814A
:10356000848195810E94861A2196C770E5CF40918B
:10357000CE015091CF016091D0017091D101809125
:10358000D2019091D3010C94861A1F93CF93DF93AD
:103590008091D301807FD1F48091D0018823B1F054
:1035A00080919C01D0919D01B091CE01C091CF013D
:1035B0004091D1015091D201A1E0BF3F09F0A0E0BC
:1035C000BA016095709516E0D81304C0DF91CF91D1
:1035D0001F91089521E04115510521F02A2FCF3F79
:1035E00009F020E090E020FD38C0189FF001199FFD
:1035F000F00D1124E256FE4F21812C132EC02081A4
:103600002B132BC02281211128C023813481241740
:10361000350700F1241B350B283C3105F0F42091CF
:10362000D3012F7020612093D30126E0289FF00161
:10363000299FF00D1124ED55FE4F80818F70806120
:1036400080838EEC91E00E94FF19DF91CF911F9152
:103650000C94961A260F371FDFCF01968770B4CFD0
:10366000AF92BF92CF92DF92EF92FF920F931F9390
:10367000CF93DF93CDB7DEB761970FB6F894DEBF77
:103680000FBECDBF8C0185E0F801DE011D960190D3
:103690000D928A95E1F7D8014C9111965C911197A2
:1036A0001296EC903091CE016091CF018091D101C2
:1036B0009091D20121E0009731F06F3F19F421E0A1
:1036C0003F3F09F020E0B22FB170BB2E20FD80C13A
:1036D000F801C380D480A090D001AA2009F427C1AA
:1036E000C816D906D0F1D601A81BB90BCD01FF240D
:1036F000F394883C910508F0F12C8091D301982F28
:10370000907FFF2009F4CEC0911187C0FE2C651375
:1037100029C0341327C0E11025C08F7080618093C9
:10372000D3010E94B71A8EEC91E00E94FF1980919C
:10373000D301F80185838F2D61960FB6F894DEBF13
:103740000FBECDBFDF91CF911F910F91FF90EF90F2
:10375000DF90CF90BF90AF900895809590958C0D9D
:103760009D1DC5CF81E0CD2831F05F3F19F481E088
:103770004F3F09F080E080FD24C081E08E25F82FC6
:10378000F170DF2E80FF3FC080919C0120919D0150
:1037900036E0821318C04D875E878D859E850E9416
:1037A000731F292F22952F70223008F1243030F515
:1037B0009F7009F1D80115969C91907FE1F4FB2C44
:1037C000BACF80E0DCCF90E0389FF001399FF00D58
:1037D0001124E256FE4F6181561306C060814613E4
:1037E00003C062816E110FC001968770D2CF9F70A7
:1037F00011F0882321F3805E883008F3C8010E940D
:10380000FF19BD2CDCCFEE2009F495CF8091D301B8
:1038100081608093D301F12C8ECF651314C03413D3
:1038200012C0E11010C0F8018583C8010E94FF1981
:1038300086E0F801AEECB1E001900D928A95E1F7D7
:103840000E94B71A78CF4D875E878D859E850E942E
:10385000481A882319F1EE2009F18091D3018032B2
:1038600070F02091CE013091CF0138872F831986D7
:10387000DB86CA868C87CE0107960E94FF1986E0F8
:10388000F801AEECB1E001900D928A95E1F70E944B
:10389000C51A0E94B71AFF24F3944DCFC8010E94A5
:1038A000FF19F9CF911113C07C2DD98AC88A6E2DCA
:1038B00089890E94771A8EEC91E00E94FF1986E0B8
:1038C000EEECF1E0DF011D928A95E9F7B9CF6513BF
:1038D00012C0341310C0E1100EC0F8018583C80176
:1038E0000E94FF19EEECF1E086E0DF011D928A955F
:1038F000E9F7FA2C20CF4D875E878D859E850E9443
:10390000481A882359F2EE2049F28091D30180327F
:1039100008F4B5CF2091CE013091CF013A832983AD
:103920001B82DD82CC828E83CE010196A6CFC81683
:10393000D90638F1F601E81BF90BCF01F12C883CD0
:10394000910508F03DC0FE2CEE2009F4A7CF6513C9
:1039500026C0341324C08091D30180FD17C0982F56
:10396000907FA1F0D80115968C931597903F09F49C
:103970005CCF982F907F905F8F70892B15968C93DA
:1039800054CF809590958C0D9D1DD8CF86E0F80181
:10399000AEECB1E001900D928A95E1F7CCCE4D8767
:1039A0005E878D859E850E94481A811168CF80911F
:1039B000D30181608093D301C8010E94FF19BBCE5F
:1039C0007C2DD98AC88A6E2D89890E94771A77CF73
:1039D000EE2009F463CF4D875E878D859E850E941A
:1039E000481AF82E882309F459CF86E0F801AEEC86
:1039F000B1E001900D928A95E1F78EEC91E00E9482
:103A000040160E94C51A1CCF1F93CF93DF93CDB7EA
:103A1000DEB72C970FB6F894DEBF0FBECDBF4F8335
:103A2000588769877A878B879C87CE0107960E9483
:103A3000301B882309F442C09F8188852A853B85F5
:103A4000232B39F08F3F19F481E09F3F19F080E07C
:103A500001C081E080FD08C04F81588569857A8565
:103A60008B859C850E94861A16E080919C0190911E
:103A70009D01891709F467C0819FC00111248256F6
:103A80009E4F0E94301B882309F45DC0E0919C0189
:103A90001E9FF0011124E256FE4F40815181628148
:103AA0007381848195810E94861A80919C0190E0A7
:103AB00001968770992780939C01D7CF86E0FE01FD
:103AC0003796DE01119601900D928A95E1F79F815C
:103AD00088852A853B85232B39F08F3F19F481E0B7
:103AE0009F3F19F080E001C081E080FDBDCF2091B3
:103AF0009D0130E0C90101968770992740919C0192
:103B00004817190699F096E0929FD001939FB00D47
:103B10001124A256BE4FFE01319601900D929A9546
:103B2000E1F780939D010E94961A9ECF0E94441A4D
:103B300010929D0110929C0186E0EEECF1E0DF0115
:103B40001D928A95E9F72C960FB6F894DEBF0FBE4A
:103B5000CDBFDF91CF911F910895EF92FF920F9308
:103B60001F93CF93DF938C01892B81F0F12CEE24EE
:103B7000E394E8012196F8018491843770F484304D
:103B800008F05FC08130B1F08230A1F1DF91CF91B8
:103B90001F910F91FF90EF900895853709F44CC065
:103BA00008F43DC09CE7980F903780F78F770E940C
:103BB000201749C00E5F1F4FFE01849190E2980FBD
:103BC000983060F48770FE2D01C0FF0F8A95EAF7E8
:103BD0008F2F0E941C200E94C41F02C00E94451605
:103BE0008F2D815030F2EFE9FFE03197F1F700C0FF
:103BF0000000F7CF0E5F1F4FFE01849190E2980FF7
:103C0000983050F48770FE2D01C0FF0F8A95EAF7B7
:103C10008F2F0E942220DFCF0E942017E1CF0E5F5E
:103C20001F4FFE01C491C150D8F28FE99FE0019768
:103C3000F1F700C00000F7CF0E5F1F4FFE01F490B8
:103C4000CFCF0E9445168E01CBCF08950E94251E2E
:103C50006093D8017093D9018093DA019093DB01CE
:103C60000C94301A08950C94261E0F931F93009104
:103C7000D8011091D9012091DA013091DB01602B3C
:103C8000712B822B932B1F910F910C94261E0F9357
:103C90001F930091D8011091D9012091DA01309140
:103CA000DB0160237123822393231F910F910C94D6
:103CB000261E0F931F930091D8011091D9012091D6
:103CC000DA013091DB0160277127822793271F914A
:103CD0000F910C94261E0C94251E0C946B1E0E94B2
:103CE0006D1E6093D4017093D5018093D60190939B
:103CF000D7010C94301A60E070E0CB010C946F1E79
:103D00000F931F9341E050E060E070E08A019B0157
:103D100004C0000F111F221F331F8A95D2F7C9015B
:103D2000B8011F910F910C946F1E0F931F9341E0E8
:103D300050E060E070E004C0440F551F661F771F1D
:103D40008A95D2F78091D4019091D501A091D601A6
:103D5000B091D7018A019B01082B192B2A2B3B2BF1
:103D6000C901B8011F910F910C946F1E0F931F93FF
:103D700041E050E060E070E004C0440F551F661F52
:103D8000771F8A95D2F7CB01BA016095709580951F
:103D900090950091D4011091D5012091D6013091D8
:103DA000D70160237123822393231F910F910C94D9
:103DB0006F1E0F931F9341E050E060E070E004C07D
:103DC000440F551F661F771F8A95D2F78091D40143
:103DD0009091D501A091D601B091D7018A019B01A4
:103DE000082719272A273B27C901B8011F910F91DE
:103DF0000C946F1E0F931F930091D4011091D50165
:103E00002091D6013091D701602B712B822B932BFF
:103E10001F910F910C946F1E0F931F930091D4016B
:103E20001091D5012091D6013091D70160237123E3
:103E3000822393231F910F910C946F1E0F931F9356
:103E40000091D4011091D5012091D6013091D70174
:103E500060277127822793271F910F910C946F1E63
:103E60000895BF92CF92DF92EF92FF920F931F932C
:103E7000CF93DF938C01C090D401D090D501E09016
:103E8000D601F090D7018091D8019091D901A091ED
:103E9000DA01B091DB01C82AD92AEA2AFB2ACFE14C
:103EA000D0E0BC2ED701C6010C2E04C0B695A79554
:103EB000979587950A94D2F780FD0EC0219788F7D1
:103EC000B12C8B2DDF91CF911F910F91FF90EF902F
:103ED000DF90CF90BF900895B8018C2F0E94CB0C3B
:103EE000019761F3EECFCF93DF93EC010E94311F76
:103EF000BE01DF91CF910C94CB0CCB010C94731FBE
:103F0000682F80910301909104010C94A920682FDF
:103F100080910301909104010C94AB2080910301E6
:103F2000909104010C94AD208091DC0185958595DC
:103F3000859508958091DC018770089598E0899FA8
:103F400090011124622B6093DC010C94951E9091DA
:103F5000DC01809589238093DC01282F277061F490
:103F6000282F082E000C330B9217130629F0859585
:103F7000859585950C94B61E08959091DC019770F7
:103F800081E009F480E00895E0910301F0910401DB
:103F90008091E8018083E0910301F0910401808128
:103FA0009091E701892B8083E0910301F091040156
:103FB00080819091E601892B80839091DD01992386
:103FC00081F0E0910301F09104018081892B8083CD
:103FD00080910301909104010E947520811110923B
:103FE000DD0180910301909104010C941E158091D4
:103FF000E80108959091E801892B8093E8010895E4
:10400000982F90958091E80189238093E801089585
:104010001092E80108959091E701892B8093E701C0
:104020000895982F90958091E70189238093E70167
:1040300008951092E70108959091E601892B8093ED
:10404000E6010895982F90958091E6018923809349
:10405000E60108951092E60108958093DD01089528
:104060001092DD0108956DEE7EEF90E080E00E94F9
:10407000663060E082E090E00E94483060E083E0DB
:1040800090E00E94483060E084E090E00E94483078
:1040900060E085E090E00E94483040E050E0BA01E6
:1040A00088E090E00C945A3090E080E00E9442302A
:1040B00021E08D3E9E4F09F020E0822F089582E09E
:1040C00090E00C94343083E090E00C943430682F0E
:1040D00083E090E00C94483084E090E00C9434301D
:1040E000682F84E090E00C944830FC0131969C01EC
:1040F000285F3F4F80E0919191118F5FE217F307A6
:10410000D1F708959C01FC0132969FEF80E0419128
:10411000461751F09F3F19F4411101C0982F8F5F4E
:104120008630A9F79F3F09F40895290F311D97FDA7
:104130003A95F90162830895FC013296089621911F
:10414000261303C0DF0111971C92E817F907B9F78E
:1041500008950C9482200C949C20FC011182128200
:104160001382148215821682178208958091390273
:10417000843039F11092EA0188E190E020E40FB632
:10418000F894A895809360000FBE2093600080E0B3
:104190000E94A90C83B7817F846083BF83B781604D
:1041A00083BF7894889583B78E7F83BF0FB6F894CA
:1041B000A8958091600088618093600010926000F3
:1041C0000FBE089508950895CF930E94E2200E94A3
:1041D000CE070E94E320C0E08C2F0E940E088111C0
:1041E00005C0CF5FCA30C1F7CF91089581E0FCCF01
:1041F0000E94441A0E9412150C94A90C1F920F924F
:104200000FB60F9211248F939F93AF93BF9380911A
:10421000EA01811113C080912F0290913002A09188
:104220003102B09132024196A11DB11D80932F023F
:1042300090933002A0933102B0933202BF91AF91BC
:104240009F918F910F900FBE0F901F90189582E055
:1042500084BD93E095BD9AEF97BD80936E0008955D
:104260002FB7F89480912F0290913002A0913102E3
:10427000B09132022FBF0895CF92DF92EF92FF925A
:104280000F931F932FB7F89440912F025091300253
:1042900060913102709132022FBF6A017B01EE24DE
:1042A000FF248C0130E020E0C016D106E206F306C0
:1042B00050F0481B590BCA011F910F91FF90EF90CE
:1042C000DF90CF90089541505109F3CF78941F9219
:1042D0000F920FB60F9211248F939F93AF93BF93BA
:1042E00080912F0290913002A0913102B091320260
:1042F0000196A11DB11D80932F0290933002A093CF
:104300003102B0933202BF91AF919F918F910F9084
:104310000FBE0F901F90189587E797E790930108BD
:104320008093000888E19AE00FB6F894A8958093EE
:1043300060000FBE90936000FFCF0E945420811157
:1043400002C00E9433200E945F208093E9010E94F6
:104350006C2090E090933402809333020E9463209B
:10436000682F70E090E080E00C94331E8091ED01A6
:1043700080FF12C06091080185E0689FB0011124A0
:10438000759567957595679560387105A8F5611500
:104390007105A1F1862F089581FF09C06091080180
:1043A00085E0689FB001112475956795EDCF82FF78
:1043B00007C06091080185E0689FB0011124E4CF37
:1043C0002091EE012223A9F090910701609108014C
:1043D00085E0689FB00111242917B0F6269FA0013F
:1043E000279F500D1124692F70E0CA010E941A30D6
:1043F000CBCF65E070E0CECF8FE7089581E00895E0
:104400008091ED0180FF0CC06091060170E0759510
:104410006795759567956115710549F1862F089522
:1044200081FF06C06091060170E075956795F3CF36
:104430006091060182FD0BC09091EE019923A1F0DD
:104440006091050180910601961738F0682F70E0A1
:104450006038710500F38FE70895899FC00111242A
:1044600070E00E941A30F4CF61E070E0D7CF81E0B5
:104470000895803F31F40E94B62181958093F10127
:104480000895813F19F40E94B621F8CF823F31F49C
:104490000E94B62181958093F0010895833F19F41D
:1044A0000E94B621F8CF893F29F40E940022809310
:1044B000F20108958A3F21F40E9400228195F7CFEE
:1044C0008B3F31F40E94002281958093F30108957F
:1044D0008C3F19F40E940022F8CF843F31F4809180
:1044E000EF0181608093EF010895853F21F4809171
:1044F000EF018260F7CF863F21F48091EF01846065
:10450000F1CF873F21F48091EF018860EBCF883FA6
:1045100021F48091EF018061E5CF8D3F31F48091EE
:10452000ED0181608093ED0108958E3F21F480912B
:10453000ED018260F7CF8F3FB9F78091ED01846084
:10454000F1CF803FC1F48091F10187FD1092F1011C
:104550008091F00181110EC08091F10181110AC09A
:104560008091F201811106C08091F301811102C096
:104570001092EE010895813F29F48091F1011816FF
:104580002CF3E6CF9091F001823F29F497FFE0CF22
:104590001092F001DDCF833F19F41916CCF3D8CF78
:1045A000893F39F48091F201181694F61092F201C5
:1045B000CFCF8A3F29F48091F20187FFC9CFF6CF90
:1045C0008B3F39F48091F30187FFC2CF1092F30142
:1045D000BFCF8C3F29F48091F3011816BCF3B8CFFC
:1045E000843F31F48091EF018E7F8093EF01B0CF53
:1045F000853F21F48091EF018D7FF7CF863F21F435
:104600008091EF018B7FF1CF873F21F48091EF0103
:10461000877FEBCF883F21F48091EF018F7EE5CF3C
:104620008D3F31F48091ED018E7F8093ED0190CF2D
:104630008E3F21F48091ED018D7FF7CF8F3F09F000
:1046400087CF8091ED018B7FF0CF8FEE91E00E94BC
:1046500029150E9430219093EC018093EB0108957D
:104660001F93CF93DF938091EB019091EC010E9417
:104670003C21AC019091EE012091090130E09111B3
:1046800006C020910A018AE0289F90011124421758
:10469000530780F08091F0011091F101D091F20167
:1046A000C091F30181110AC0111161C0D1115FC025
:1046B000C1115DC0DF91CF911F9108959F3F19F007
:1046C0009F5F9093EE01181624F40E94B621809308
:1046D000F0018091F00187FF05C00E94B62181950D
:1046E0008093F001111624F40E94B6218093F10109
:1046F0008091F10187FF05C00E94B62181958093CA
:10470000F1014091F001442379F03091F10133231C
:1047100059F025EB4203A00111245093F00132031C
:10472000900111243093F1011D1624F40E940022FF
:104730008093F2018091F20187FF05C00E94002260
:1047400081958093F2011C1624F40E94002280932C
:10475000F3018091F30187FF05C00E94002281953B
:104760008093F301DF91CF911F910C9425239F3FFC
:1047700009F0A6CFB7CF85E0EFEEF1E0DF011D92A3
:104780008A95E9F71092EE011092ED0108958330B9
:1047900081F128F4813059F08230D1F008958530CC
:1047A00009F449C0B8F1863009F456C008958091E3
:1047B0000A01482F460F5527551F4F3F510524F436
:1047C000680F60930A0108958FEF80930A0108959E
:1047D00080910901482F460F5527551F4F3F51051E
:1047E00024F4680F6093090108958FEF8093090105
:1047F000089580910801482F460F5527551F4F3FB8
:10480000510524F4680F6093080108958FEF809399
:104810000801089580910701482F460F5527551F1D
:104820004F3F510524F4680F6093070108958FEFFF
:1048300080930701089580910601482F460F552760
:10484000551F4F3F510524F4680F609306010895EA
:104850008FEF80930601089580910501482F460F40
:104860005527551F4F3F510524F4680F60930501EC
:1048700008958FEF809305010895833011F128F496
:10488000813049F0823091F00895853081F120F136
:104890008630C1F1089580910A01681720F4861BC3
:1048A00080930A01089510920A01089580910901E8
:1048B000681720F4861B809309010895109209015E
:1048C000089580910801681720F4861B80930801E1
:1048D000089510920801089580910701681720F447
:1048E000861B809307010895109207010895809117
:1048F0000601681720F4861B809306010895109224
:104900000601089580910501681720F4861B8093A5
:10491000050108951092050108950F931F9341E03A
:1049200050E060E070E08A019B0104C0000F111F9D
:10493000221F331F8A95D2F7C901B8010E94331E86
:104940001F910F910C94441A8732A8F58E3108F00C
:104950007BC08E3009F46DC058F4873009F45AC01A
:104960008B3009F44BC0863009F44AC080E00895CA
:10497000863109F443C068F48031C1F79091E901B0
:10498000892F877F93FF88608093E90183FD0FC0A3
:1049900035C0893199F18B3149F79091E901892F1F
:1049A0008D7F91FF82608093E90181FF27C0809114
:1049B000E90181603BC0883309F150F4893221F06C
:1049C000853311F0873291F680E00E948D2416C065
:1049D0008334D1F320F48A3348F28953F6CF8834F4
:1049E00029F60E94441A2FEF83ED90E32150804076
:1049F0009040E1F700C000000E948C2181E0089502
:104A00008091E901817F8E7F8093E90181E080932D
:104A1000F50108959091E901892F8E7F90FF8160C3
:104A20008093E90180FDEACF897F877F8093E90148
:104A3000E5CF9091E901892F8B7F92FF846080936D
:104A4000E90182FDB4CFDACF8D51BFCF80E0089568
:104A50000C9426258E518A3030F4E82FF0E0E95D81
:104A6000FE4F8081089580E00895CF93C82F8091F4
:104A7000F5018130C9F030F08230D9F11092F501A2
:104A800080E010C0E0910301F09104018081823246
:104A9000B9F78C2F0E94262581111BC08C2F0E94F4
:104AA000A4248170CF910895E0910301F091040155
:104AB0008081823271F38C2F0E942825811110C0D1
:104AC000C43181F048F4CB3059F0C03171F080E04E
:104AD000E8CF81E090E0E5CFC93221F0C833B9F7E3
:104AE00081E0DFCF1092F501F2CF82E08093F501F3
:104AF000F7CFC93219F188F4C43101F120F4C7307D
:104B000081F181E0CFCF82EE8C0F8630D0F78C2FF1
:104B10000E942A258093F401F4CFCE3401F140F4B1
:104B20006AE0CB3471F78091F4010E94C723E9CF8A
:104B3000C13579F061E0C235B1F3E3CF8091F40182
:104B4000882319F01092F401DCCF81E08093F50105
:104B5000A9CF61E08091F4010E943D24D2CF6AE0A8
:104B6000F9CF8EE180930A0182E3809309018AE004
:104B70008093080184E18093070188E08093060117
:104B800088E280930501BDCF8091FE0108950F93C7
:104B90001F93CF93DF9300D01F92CDB7DEB78C0168
:104BA0000E940E28823011F0843019F583E0898349
:104BB0001B830A838093E9008FEF9091E800815076
:104BC00095FD06C095ED9A95F1F700008111F5CF9E
:104BD0008091E80085FF0DC050E040E063E070E0A8
:104BE000CE0101960E942B288091E8008E77809359
:104BF000E8000F900F900F90DF91CF911F910F91D0
:104C00000895CF93DF9300D01F92CDB7DEB72091E8
:104C10003902243031F522E02983805891099B83A1
:104C20008A8383E08093E9008FEF9091E8008150C0
:104C300095FD06C095ED9A95F1F700008111F5CF2D
:104C40008091E80085FF0DC050E040E063E070E037
:104C5000CE0101960E942B288091E8008E778093E8
:104C6000E8000F900F900F90DF91CF910895CF93B0
:104C7000DF93EC010E940E28823011F08430F9F4A9
:104C800082E08093E9008FEF9091E800815095FDDC
:104C900006C095ED9A95F1F700008111F5CF80914E
:104CA000E80085FF0CC050E040E065E070E0CE0118
:104CB0000E942B288091E8008E778093E800DF9196
:104CC000CF910895CF93DF93EC010E940E2882309C
:104CD00011F0843039F581E08093E9008FEF9091F5
:104CE000E800815095FD06C095ED9A95F1F700001A
:104CF0008111F5CF8091E80085FF14C050E040E0BD
:104D000068E070E0CE010E942B288091E8008E7749
:104D10008093E80088E0FE01A6EFB1E001900D92DB
:104D20008A95E1F7DF91CF91089580913802811142
:104D300009C00E94BB290E94182A8091E200846069
:104D40008093E2000895109238020895089508951E
:104D50000C94F82042E061EC81E00E94392942E0A5
:104D600061EC82E00E94392942E061EC83E00C941E
:104D7000392980913B02833009F452C030F48130EC
:104D800059F1823009F48EC008958A3009F47AC04E
:104D90008B3009F460C0893009F041C080913A023B
:104DA0008132E9F580913E0290913F02892BB9F55D
:104DB0008091E800877F8093E8008091E80082FF7F
:104DC0002AC08091F1008093FE018091E8008B77EA
:104DD0008093E8000C946D2980913A02813AF9F4AD
:104DE0008091E800877F8093E80080913E02909157
:104DF0003F02892B61F468E086EF91E070E00E9449
:104E00007A288091E8008B778093E800089560E02D
:104E100090E080E0F3CF809139028111CECF0895E8
:104E200080913A02813AD9F780913E0290913F02F7
:104E3000892BA9F78091E800877F8093E800809113
:104E4000E80080FFFCCF809115018093F1008091F4
:104E5000E8008E77BDCF80913A02813201F78091D0
:104E60003E0290913F02892BD1F68091E800877F26
:104E70008093E8000E946D2980913C028093150187
:104E80000C94441A80913A02813249F68091E800EC
:104E9000877F8093E8000E946D2980913D02809376
:104EA000FF01089580913A02813A09F0B8CF8091CC
:104EB000E800877F8093E8008091E80080FFFCCFC6
:104EC0008091FF01C2CF84B7877F84BF0FB6F8946B
:104ED000A8958091600088618093600010926000C6
:104EE0000FBE80E880936100109261000E946015FF
:104EF0000E94BB290E94182A8091E200846080935E
:104F0000E20078940E94A12C0E9464158BE091E04D
:104F10000E940D1580913902853029F00E946C1590
:104F20000E94A114F7CF0E94B620809137028823F7
:104F300089F30E94E420882369F30E941528EACFB0
:104F40000C94A227292F33272330310579F158F407
:104F500021303105F1F02230310519F190E080E087
:104F600030E020E01AC021323105C9F1223231058A
:104F7000A9F76330710590F7FB01EE0FFF1FEC5CA2
:104F8000FE4F208131816F5C7E4FFB01808190E07C
:104F900004C082E190E022EF3BE0FA0131832083FC
:104FA000089584E590E02EE93BE0F7CF9927813022
:104FB000910579F040F08230910571F0039771F618
:104FC000E8E5FBE002C0EAE9FBE0849190E09F01A4
:104FD000E4CFEAE8FBE0F9CFEEE5FBE0F6CF6330A3
:104FE000710508F0BBCF660F771FFB01E65CFE4F33
:104FF0002081318189E090E0D0CF0895CF93C82FF0
:105000000E94FD27C0930002CF910895809139023C
:10501000843011F081E0089582E0089580910002CB
:10502000811102C00C940628089580E189BD82E1B7
:1050300089BD09B400FEFDCF8091D8008F7D80939B
:10504000D8008091E00082608093E0008091E000D1
:1050500081FDFCCF0895AF92BF92CF92DF92FF9275
:105060000F931F93CF93DF936C01EB018A010E9492
:105070008C29F82E811123C00115110539F0F80192
:1050800080819181C81BD90BC80ED91EB12CA12CCF
:105090002097A9F08091E80085FD22C08091E8006A
:1050A0008E778093E80001151105A1F0F801808149
:1050B0009181A80EB91EB182A08285E0F82E8F2DB5
:1050C000DF91CF911F910F91FF90DF90CF90BF9014
:1050D000AF9008950E948C298823D1F2F82EEFCF4B
:1050E000F60181916F018093F1002197FFEFAF1AD4
:1050F000BF0ACECFFC0180914002909141028617F9
:105100009707A0F06115710529F49091E8009E774A
:105110009093E80090E06115710551F4911108C079
:105120008091E80082FF35C080E00895BC01F2CF95
:10513000809139028823C9F18530C9F18091E80056
:1051400083FD31C08091E80082FDEACF8091E800C4
:1051500080FFE1CF2091F3008091F200322F282FC1
:105160006115710519F02830310558F091E02830AB
:10517000310509F090E02091E8002E772093E800B7
:10518000CACF81918093F100615071092F5F3F4F29
:10519000E7CF80913902882341F0853041F080913A
:1051A000E80083FFBDCF81E0089582E0089583E0A9
:1051B0000895FC0180914002909141028617970763
:1051C000A0F06115710529F48091E8008E77809335
:1051D000E80090E06115710551F4911108C08091CB
:1051E000E80082FF36C080E00895BC01F2CF8091D4
:1051F00039028823D1F18530D1F18091E80083FD17
:1052000032C08091E80082FDEACF8091E80080FF03
:10521000E1CF2091F3008091F200322F282F611509
:10522000710519F02830310558F091E0283031052A
:1052300009F090E08091E8008E778093E800CACF73
:1052400084918093F1003196615071092F5F3F4F37
:10525000E6CF80913902882341F0853041F080917A
:10526000E80083FFBCCF81E0089582E0089583E0E9
:105270000895982F973028F08F708093E90081E08F
:1052800008959093E900242F762F50E0981731F07D
:105290007091EC002091ED005091F00021FD02C0D2
:1052A0009F5FE8CF3091EB003E7F3093EB00309171
:1052B000ED003D7F3093ED003091EB003160309395
:1052C000EB007093EC002093ED005093F0002091E0
:1052D000EE0027FDE5CF80E0089580913A0287FF38
:1052E00013C08091E80082FF06C08091E8008B77B0
:1052F0008093E80004C0809139028111F2CF0895B3
:10530000809139028823D9F38091E80080FFF8CF9B
:105310008091E8008E77ECCF2091E4003091E50099
:1053200085E69091EC0090FF06C09091E80090FF18
:1053300006C080E008959091E80092FDFACF909128
:105340003902992391F0953091F09091EB0095FD01
:1053500010C04091E4005091E5002417350709F38F
:1053600081509A01F1F684E0089582E0089583E087
:10537000089581E008950E94292A0E94312AE0EED2
:10538000F0E0808181608083E8EDF0E080818F77BC
:10539000808319BCA7EDB0E08C918E7F8C938081C7
:1053A0008F7E80831092380208950F931F93CF93BE
:1053B000DF930E94292A0E94312AC8EDD0E088811B
:1053C0008F77888388818068888388818F7D8883B0
:1053D00019BC1092390210923502109237021092C5
:1053E000360200EE10E0F80180818B7F8083888197
:1053F0008160888342E060E080E00E943929E1EE2C
:10540000F0E080818E7F8083E2EEF0E08081816039
:105410008083808188608083F80180818E7F808393
:10542000888180618883DF91CF911F910F910895CA
:10543000E8EDF0E080818F7E8083E7EDF0E0808111
:105440008160808384E082BF81E0809338020C9485
:10545000D529E8EDF0E080818E7F80831092E20014
:1054600008951092DA001092E10008951F920F92B1
:105470000FB60F9211242F933F934F935F936F9327
:105480007F938F939F93AF93BF93EF93FF938091FD
:10549000E10082FF0BC08091E20082FF07C0809193
:1054A000E1008B7F8093E1000E94A02C8091DA00C4
:1054B00080FF19C08091D80080FF15C08091DA006C
:1054C0008E7F8093DA008091D90080FF94C080E1C4
:1054D00089BD82E189BD09B400FEFDCF81E08093E2
:1054E00039020E9495268091E10080FF19C08091C9
:1054F000E20080FF15C08091E2008E7F8093E20081
:105500008091E20080618093E2008091D800806207
:105510008093D80019BC85E0809339020E94A726A9
:105520008091E10084FF29C08091E20084FF25C0C2
:1055300080E189BD82E189BD09B400FEFDCF809183
:10554000D8008F7D8093D8008091E1008F7E80937A
:10555000E1008091E2008F7E8093E2008091E20082
:1055600081608093E20080913502882309F449C06C
:1055700084E0809339020E94A8268091E10083FF95
:1055800029C08091E20083FF25C08091E100877FE0
:105590008093E10082E0809339021092350280917D
:1055A000E1008E7F8093E1008091E2008E7F809306
:1055B000E2008091E20080618093E20042E060E0DE
:1055C00080E00E9439298091F00088608093F0008B
:1055D0000E94A626FF91EF91BF91AF919F918F916D
:1055E0007F916F915F914F913F912F910F900FBEDF
:1055F0000F901F90189519BC109239020E94A32693
:1056000072CF8091E30087FD02C081E0B2CF83E0DA
:10561000B0CF1F920F920FB60F9211242F933F938A
:105620004F935F936F937F938F939F93AF93BF93AA
:10563000CF93EF93FF93C091E900CF708091EC007E
:105640001092E9008091F000877F8093F0007894B9
:105650000E94452B1092E9008091F00088608093B1
:10566000F000C093E900FF91EF91CF91BF91AF910E
:105670009F918F917F916F915F914F913F912F916A
:105680000F900FBE0F901F9018951F93CF93DF932D
:10569000CDB7DEB7AA970FB6F894DEBF0FBECDBF69
:1056A000EAE3F2E08091F100819322E0E234F20734
:1056B000C9F70E94B9268091E80083FF44C0809119
:1056C0003A0290913B029A3008F03DC0E92FF0E099
:1056D000E459F44D0C942E30762B9C2BA32B9C2B51
:1056E000A32BFA2B1C2CA32B732C802C803889F035
:1056F000823849F580913E028F70873020F5809383
:10570000E9008091EB0085FB882780F91092E90081
:1057100006C080913602909137029111826090917B
:10572000E800977F9093E8008093F1001092F100D9
:105730008091E8008E772DC0282F2D7F21F48823BB
:10574000D1F0823059F18091E80083FF0AC0809146
:10575000E800877F8093E8008091EB00806280936F
:10576000EB00AA960FB6F894DEBF0FBECDBFDF9157
:10577000CF911F91089580913C02813021F79330A1
:1057800009F080E0809337021092E9008091E800F0
:10579000877F8093E8000E946D29D5CF80913C02DD
:1057A0008111F2CF80913E028F702FEF280F2630AB
:1057B00050F68093E9002091EB0020FFE5CF933075
:1057C00031F48091EB0080628093EB00DDCF90910B
:1057D000EB0090619093EB0021E030E001C0220FDC
:1057E0008A95EAF72093EA001092EA008091EB0094
:1057F0008860EACF8111A7CF10913C021F7780917A
:10580000E3008078812B8093E3008091E800877F1C
:105810008093E8000E946D298091E80080FFFCCF12
:105820008091E30080688093E30083E0111101C060
:1058300082E08093390287CF8058823008F083CF8E
:1058400080913C0290913D028C3D23E09207A1F5AE
:1058500083E08A838AE289834FB7F894DE01139646
:1058600020E03EE051E2E32FF0E050935700E49156
:1058700020FF03C0E295EF703F5FEF708E2F90E046
:10588000EA30C0F0C7968D939D932F5F243159F76E
:105890004FBF8091E800877F8093E8006AE270E064
:1058A000CE0101960E947A288091E8008B77809340
:1058B000E80049CFC096E7CF60913E0270913F0269
:1058C000AE014F5F5F4F0E94A027BC01892B09F4F6
:1058D0003ACF9091E800977F9093E80089819A8170
:1058E0000E94D928E1CF803809F02DCF8091E800BF
:1058F000877F8093E800809135028093F10018CF74
:10590000811121CF90913C02923008F01CCF809100
:10591000E800877F8093E800909335020E946D290C
:1059200080913502882331F084E0809339020E940F
:10593000AA2609CF8091E30087FDF6CF81E0F5CF5D
:105940000895CF9380913902882399F0C091E9009E
:10595000CF708091EC0080FD0EC080E0C82B1092CB
:10596000E9008091E80083FD0E94452BCF70C09331
:10597000E900CF91089580E8F1CF5058BB27AA27BE
:105980000E94D52C0C94802E0E94722E38F00E941A
:10599000792E20F039F49F3F19F426F40C94482E08
:1059A0000EF4E095E7FB0C94422EE92F0E94912E15
:1059B00058F3BA17620773078407950720F079F444
:1059C000A6F50C94B32E0EF4E0950B2EBA2FA02D55
:1059D0000B01B90190010C01CA01A0011124FF279C
:1059E000591B99F0593F50F4503E68F11A16F04097
:1059F000A22F232F342F4427585FF3CF4695379596
:105A00002795A795F0405395C9F77EF41F16BA0B5A
:105A1000620B730B840BBAF09150A1F0FF0FBB1F08
:105A2000661F771F881FC2F70EC0BA0F621F731F51
:105A3000841F48F4879577956795B795F7959E3FAE
:105A400008F0B0CF9395880F08F09927EE0F97953F
:105A5000879508950E943E2D0C94802E0E94792EE9
:105A600058F00E94722E40F029F45F3F29F00C9408
:105A7000422E51110C94B42E0C94482E0E94912E5B
:105A800068F39923B1F3552391F3951B550BBB276D
:105A9000AA2762177307840738F09F5F5F4F220FB2
:105AA000331F441FAA1FA9F335D00E2E3AF0E0E8A9
:105AB00032D091505040E695001CCAF72BD0FE2FF3
:105AC00029D0660F771F881FBB1F26173707480787
:105AD000AB07B0E809F0BB0B802DBF01FF2793583F
:105AE0005F4F3AF09E3F510578F00C94422E0C9493
:105AF000B42E5F3FE4F3983ED4F38695779567958F
:105B0000B795F7959F5FC9F7880F911D9695879573
:105B100097F90895E1E0660F771F881FBB1F621792
:105B200073078407BA0720F0621B730B840BBA0B50
:105B3000EE1F88F7E095089529F416F00C94422E94
:105B40000C94B32E0C94482E0E94992EA8F39638EC
:105B5000A0F707F80F92E8942BE33AEA48EB5FE7E7
:105B60000E94462F0F920F920F924DB75EB70F9281
:105B70000E94FC2EECEAF0E00E944B2E4F915F91C8
:105B8000EF91FF91E595EE1FFF1F49F0FE57E0688A
:105B90004427EE0F441FFA95E1F74195550B0E94FB
:105BA000C62E0F9007FE0C94BA2E08950E94992ECF
:105BB00088F09F5798F0B92F9927B751B0F0E1F0CE
:105BC000660F771F881F991F1AF0BA95C9F714C07E
:105BD000B13091F00E94B32EB1E008950C94B32E31
:105BE000672F782F8827B85F39F0B93FCCF38695B7
:105BF00077956795B395D9F73EF490958095709514
:105C000061957F4F8F4F9F4F0895E89409C097FB90
:105C10003EF490958095709561957F4F8F4F9F4F83
:105C20009923A9F0F92F96E9BB279395F6958795C7
:105C300077956795B795F111F8CFFAF4BB0F11F48A
:105C400060FF1BC06F5F7F4F8F4F9F4F16C0882331
:105C500011F096E911C0772321F09EE8872F762F67
:105C600005C0662371F096E8862F70E060E02AF0A8
:105C70009A95660F771F881FDAF7880F9695879594
:105C800097F9089597F99F6780E870E060E00895BC
:105C90009FEF80EC0895DF93CF931F930F93FF92B4
:105CA000EF92DF927B018C01689406C0DA2EEF013F
:105CB0000E94432FFE01E894A591259135914591CD
:105CC0005591A6F3EF010E94D52CFE019701A80182
:105CD000DA9469F7DF90EF90FF900F911F91CF91C9
:105CE000DF91089500240A9416161706180609066F
:105CF000089500240A941216130614060506089542
:105D0000092E0394000C11F4882352F0BB0F40F4C9
:105D1000BF2B11F460FF04C06F5F7F4F8F4F9F4F09
:105D2000089557FD9058440F551F59F05F3F71F08B
:105D30004795880F97FB991F61F09F3F79F08795F2
:105D40000895121613061406551FF2CF4695F1DF7B
:105D500008C0161617061806991FF1CF869571050B
:105D6000610508940895E894BB2766277727CB013F
:105D700097F908959B01AC0160E070E080E89FE333
:105D80000C942A2D0C94422E0C94A52F0E94992E2F
:105D9000D8F39923C9F3940F511DA3F391505040A8
:105DA00094F059F0882332F0660F771F881F9150C6
:105DB0005040C1F79E3F51052CF7880F911D9695D5
:105DC000879597F908955F3FACF0983E9CF0BB270C
:105DD000869577956795B79508F4B1609395C1F767
:105DE000BB0F58F711F460FFE8CF6F5F7F4F8F4F05
:105DF0009F4FE3CF0C94B42EFA01DC01AA0FBB1F16
:105E00009B01AC01BF5728F4222733274427507841
:105E100020C0B75190F4AB2F0024469537952795B5
:105E2000011CA395D2F3002071F0220F331F441FF1
:105E3000B395DAF30ED00C94BD2C61307105A0E857
:105E40008A07B94630F49B01AC016627772788277B
:105E50009078309621F020833183428353830895D4
:105E60000E94432F0C94802E0E94722E38F00E94C4
:105E7000792E20F0952311F00C94422E0C94482E8C
:105E800011240C94B42E0E94912E70F3959FC1F3AF
:105E9000950F50E0551F629FF001729FBB27F00DD8
:105EA000B11D639FAA27F00DB11DAA1F649F66272D
:105EB000B00DA11D661F829F2227B00DA11D621F7C
:105EC000739FB00DA11D621F839FA00D611D221F36
:105ED000749F3327A00D611D231F849F600D211D1A
:105EE000822F762F6A2F11249F5750409AF0F1F09D
:105EF00088234AF0EE0FFF1FBB1F661F771F881F06
:105F000091505040A9F79E3F510580F00C94422ECD
:105F10000C94B42E5F3FE4F3983ED4F386957795C6
:105F20006795B795F795E7959F5FC1F7FE2B880FAB
:105F3000911D9695879597F908959F930E94B52F87
:105F40000F9007FCEE5F0C94DE2F9F3F31F09150D5
:105F500020F4879577956795B795880F911D96954D
:105F6000879597F908950C94482E0E94992ED8F39E
:105F7000E894E0E0BB279F57F0F02AED3FE049ECC2
:105F800006C0EE0FBB0F661F771F881F28F0B23ABE
:105F900062077307840728F0B25A620B730B840BF5
:105FA000E3959A9572F7803830F49A95BB0F661F87
:105FB000771F881FD2F790480C94A72FEF93E0FF2C
:105FC00007C0A2EA2AED3FE049EC5FEB0E94D52C26
:105FD0000E94802E0F90039401FC9058E4EDF0E0B5
:105FE0000C94F22F9F938F937F936F93FF93EF9374
:105FF0009B01AC010E94302FEF91FF910E944B2E2C
:106000002F913F914F915F910C94302FAA1BBB1B96
:1060100051E107C0AA1FBB1FA617B70710F0A61BA8
:10602000B70B881F991F5A95A9F780959095BC01C9
:10603000CD01089597FB072E16F4009407D077FD45
:1060400009D00E94063007FC05D03EF4909581955A
:106050009F4F0895709561957F4F0895EE0FFF1F34
:106060000590F491E02D0994F999FECF92BD81BD80
:10607000F89A992780B50895A6E1B0E044E050E091
:106080000C946E30A8E1B0E042E050E00C946E3029
:10609000262FF999FECF92BD81BDF89A019700B4E1
:1060A000021639F01FBA20BD0FB6F894FA9AF99A81
:1060B0000FBE08950396272F0E9449300E94483052
:1060C000252F0E944930242F0C9449300196272F08
:1060D0000E9449300C944830DC01CB01FC01F99955
:1060E000FECF06C0F2BDE1BDF89A319600B40D9224
:0C60F00041505040B8F70895F894FFCFDD
:1060FC00010102DE012808140A321EC4256226376B
:10610C00260126C72501F5F6F7313332369497C6AA
:10611C0034350000000000010203040506070809DD
:10612C0000404D36870C3A0C040CB00BC90BE20B3B
:00000001FF
