:100000000C9464060C9496080C94AB060C94AB0606
:100010000C94AB060C94AB060C94AB060C94AB069C
:100020000C94AB060C94AB060C94E3290C94B62A02
:100030000C94AD200C94AB060C94AB060C94AB0660
:100040000C94AB060C94AB060C94AB060C94AB066C
:100050000C94AB060C9415210C94AB060C94AB06D7
:100060000C94AB060C94AB060C94AB060C94AB064C
:100070000C94AB060C94AB060C94AB060C94AB063C
:100080000C94AB060C94AB060C94AB060C94AB062C
:100090000C94AB060C94AB060C94AB060C94AB061C
:1000A0000C94AB060C94AB060C94AB06076342367B
:1000B000B79BD8A71A39685618AEBAAB558C1D3CF9
:1000C000B7CC5763BD6DEDFD753EF6177231BF00BD
:1000D0000000803F05A84CCDB2D44EB93836A902F5
:1000E0000C50B9918688083CA6AAAA2ABE00000036
:1000F000803F290035021E001F0020002100220041
:100100004B002B0014001A000800150017004E00C9
:10011000DB5C04001600070009000A004A00E10049
:100120001D001B000600190005004D00E000E20064
:10013000E3004C052C082A002E002D002700260085
:1001400025002400230030002F00130012000C00B3
:1001500018001C002800340033000F000E000D00B2
:100160000B0031005200380037003600100011003B
:100170004F005100500019010601DC5C2C00010009
:1001800035003A003B003C003D003E002D020100DE
:100190001E021F022002210222022E020100010083
:1001A0000100010001000100010001000100010047
:1001B0000100AA00A90001000100010001000100E6
:1001C0002C084C0045004400430042004100400020
:1001D0003F0030022F0227022602250224022302BA
:1001E0000100010001000100010001000100010007
:1001F00001000100010001000100A800A800AE00FC
:10020000A900AA00AB0001000100290035021E0070
:100210001F002000210022004B002B0014001A00B8
:100220000800150017004E00DB5C040016000700F4
:1002300009000A004A00E1001D001B000600190029
:1002400005004D00E000E200E3004C052C082C0006
:100250002E002D002700260025002400230030005A
:100260002F00130012000C0018001C00280034009E
:1002700033000F000E000D000B003100520038005B
:1002800037003600100011004F00510050001901D6
:100290000601DA5C2A0000000000000000000000F7
:1002A000000000000000000000000000000000004E
:1002B000000000000000000000000000000000003E
:1002C000000000000000000000000000000000002E
:1002D000000000000000000000000000000000001E
:1009B000000001003A003B003C003D003E003F00CB
:1009C00001000100005CC35CC45CC75CC65C010044
:1009D0000100010001001A5C1B5C135C01000100B6
:1009E00001000100010001000100010001000100FF
:1009F0000100010001000100010045004400430026
:100A000042004100400001004C000100CA5CCB5C88
:100A1000C85CC95C01000100010001000100DA5C52
:100A20000A5C010001000100010001000100010059
:100A30000100010001000100010001000100680146
:100A4000F000B40078005A007F3F1F643214643213
:100A500014783C1E1E140A0500000000000101016C
:100A6000010101010101020202020202020202036B
:100A7000030303030303030404040404040505053A
:100A800005050606060606070707070808080809F9
:100A900009090A0A0A0A0B0B0B0C0C0C0D0D0D0EA2
:100AA0000E0F0F0F10101111111212131314141531
:100AB0001516161717181819191A1A1B1C1C1D1DA4
:100AC0001E1F1F20202122222324252526272728F8
:100AD000292A2B2B2C2D2E2F2F3031323334353623
:100AE000363738393A3B3C3D3E3F4041424344462D
:100AF0004748494A4B4C4D4F505152535556575801
:100B00005A5B5C5E5F606263646667696A6C6D6EA7
:100B1000707173747678797B7C7E8081838486881B
:100B20008A8B8D8F91929496989A9B9D9FA1A3A555
:100B3000A7A9ABADAFB1B3B5B7B9BBBDBFC1C4C653
:100B4000C8CACCCFD1D3D6D8DADCDFE1E4E6E8EB13
:100B5000EDF0F2F5F7FAFCFF0403300000002A0381
:100B600054006800650020005600690074006500AC
:100B700072006200690020004B006500790062008D
:100B80006F0061007200640000000E034B006500FE
:100B90006500620069006F00000004030904090297
:100BA0005400030100A0FA09040000010301010040
:100BB0000921110100012240000705810308000AF4
:100BC00009040100010301020009211101000122B1
:100BD0004D000705820308000A0904020001030012
:100BE00000000921110100012236000705830308D6
:100BF000000A1201100100000008EBCE571100019D
:100C00000102030105010980A101850216010026E8
:100C100003001A81002A8300751095018100C00528
:100C20000C0901A1018503160100269C021A01008E
:100C30002A9C02751095018100C005010902A101DD
:100C40000901A100050919012905150025019505CE
:100C50007501810295017503810105010930093192
:100C60001581257F95027508810609381581257F34
:100C7000950175088106050C0A38021581257F95B6
:100C80000175088106C0C005010906A10105071903
:100C9000E029E71500250195087501810295017588
:100CA000088101050819012905950575019102952D
:100CB00001750391010507190029FF150026FF00A2
:100CC000950675088100C00011241FBECFEFDAE041
:100CD000DEBFCDBF04B603FE27C0809142029091D3
:100CE0004302A0914402B09145028730904BA74047
:100CF000B04BD1F41092420210924302109244027F
:100D00001092450214BE84B7877F84BF0FB6F89453
:100D1000A8958091600088618093600010926000C7
:100D20000FBEE0E0F8E3099511E0A0E0B1E0E6E5F0
:100D3000F0E602C005900D92A034B107D9F722E089
:100D4000A0E4B1E001C01D92A234B207E1F70E9415
:100D500012270C9429300C940000089508950C94E7
:100D6000AE068091E901836088608093E901ADE17E
:100D7000B1E061E070E08D91E82FE295EF70F0E076
:100D800041A18F709B0101C0220F8A95EAF7922F33
:100D90009095942391A382A1822B82A381E0A23219
:100DA000B80749F7A6E1B1E061E070E08D91E82F66
:100DB000E295EF70F0E041A18F709B0101C0220F1E
:100DC0008A95EAF7922F9095942391A382A1822B82
:100DD00082A381E0AD31B80749F7559A209AE0E443
:100DE000F1E0ABE4B1E08AE491E011921D928E173C
:100DF0009F07D9F70C947F0C4F925F926F927F926E
:100E00008F929F92AF92BF92CF92DF92EF92FF921A
:100E10000F931F93CF93DF938091000105E010E0C3
:100E2000882311F010E000E0C801855B9E4F7C0133
:100E30008DE1C82E81E0D82EE701AA24A394B12C1D
:100E40008824839424E0922E78801882D6018D9194
:100E50006D01E82FE295EF70F0E091A18F709501A0
:100E600001C0220F8A95EAF7892F822B81A382A1E4
:100E7000622E6094862182A3B0EABA95F1F746E12A
:100E800051E090E080E0DA017D91AD01A72FA295BD
:100E9000AF70B0E09096BC91A8817F70250102C030
:100EA000440C551C7A95E2F7B2016B2309F052C04D
:100EB0006A2D082E01C0660F0A94EAF76A2B688330
:100EC000019687309105F9F681A1862181A382A13F
:100ED000282B22A38881781659F0809255010E9410
:100EE000DF2090935701809356018BB189258BB9F0
:100EF000219682E2C81681E0D80609F0A5CF80913C
:100F000055018823A9F080915601909157010E94C4
:100F1000EB20069768F0F801E05CFE4F80E0D70117
:100F20009D917D0191938F5F8530C9F71092550196
:100F300081E0DF91CF911F910F91FF90EF90DF90B3
:100F4000CF90BF90AF909F908F907F906F905F9069
:100F50004F90089560E0B2CFCF93DF93809100016E
:100F6000D0E0C0E0882311F0C5E0D0E00E94FB088B
:100F7000009789F4C05CDE4F30E020E0F901E65ACA
:100F8000FE4F408149932F5F3F4F25303105B1F728
:100F9000DF91CF91089581E090E0FACFCF930E9446
:100FA000FC06C82F0E94AC07892BE1F05D98809168
:100FB0004A018F5F80934A01863078F0809100016A
:100FC000F0E0E0E0882311F0E5E0F0E0E05CFE4FC7
:100FD000108211821282138214820E94810C8C2F43
:100FE000CF9108955D9A10924A01F7CF0E94FC06B6
:100FF00080910001E5E0F0E0882311F0F0E0E0E00E
:10100000E05CFE4F90E080E02191DC01A65ABE4FEB
:101010002C93019685309105B9F70895E82FF0E0FB
:10102000E05CFE4F808108950895E8EDF0E0808156
:10103000806180838AE18A95F1F700C08091D900B0
:10104000817008950E941508809300010E94150880
:10105000882321F00E948908789408950E94D62060
:101060000E948D08F9CF0E94B1060E94F607FDCFBD
:101070000E9422080E941508811102C00E943308B4
:101080000895509A08955098589A0895589A089536
:101090000E944308489BFECF80E88A95F1F70895A7
:1010A0000E94430898E080E029B1880F2170822BCC
:1010B00020E82A95F1F725E02A95F1F700009150F4
:1010C00099F708950F931F93CF93082F0E9441081B
:1010D000C8E010E0C15020F4CF911F910F91089506
:1010E000C8010C2E02C0959587950A94E2F780FFFF
:1010F00006C00E94460880E88A95F1F7EBCF589821
:10110000FACF0E944108589880E88A95F1F70C942C
:1011100046080E9441080C9446080E944308E89A39
:10112000E9E6F0E080818C7F808308951F920F9222
:101130000FB60F921124EF92FF921F932F933F93BC
:101140004F935F936F937F938F939F93AF93BF93CF
:10115000CF93DF93EF93FF930E948108D0E0C0E02C
:1011600010E0CE01865A9E4F7C01FC0180810E94D6
:1011700062080E948108F7018081180F2196C5300E
:10118000D10579F7812F0E9462080E948108F0E85A
:10119000FA95F1F780E48A95F1F70E945008809360
:1011A00059010E948108C09159010E945008D82F0E
:1011B0000E9481080E94430880915801DC17C9F001
:1011C000816080935801FF91EF91DF91CF91BF91A2
:1011D000AF919F918F917F916F915F914F913F91CF
:1011E0002F911F91FF90EF900F900FBE0F901F90C7
:1011F00018958E7FE6CFEF92FF921F93CF93DF93E8
:10120000F8940E944108589825E02A95F1F70000CB
:101210000E9443080E94460830E83A95F1F7489B3F
:1012200009C0789481E090E0DF91CF911F91FF9009
:10123000EF9008950E944808D0E0C0E010E00E94BE
:101240005008FE01E65AFE4F7F0180830E94480845
:10125000F7018081180F2196C530D10581F70E94D2
:101260005008C82F0E944808C113DBCF8091590154
:101270000E9462080E944808809159010E946208F9
:101280000E9448080E9441080E944608789490E015
:1012900080E0CACF0C94AD06CF93DF93EC010E949F
:1012A0001620BE0190E080E0DF91CF910C94E21D0A
:1012B000CF93FB018B3D2CE59207E1F028F48A3DAA
:1012C0009C4581F0C1E013C08C3D2CE5920739F1BB
:1012D0008D3D9C45B9F7C28180E1CC2341F10E944C
:1012E000441E13C0C28181E090E0C1111DC08C2F4B
:1012F000CF910895C28181E0CC2349F00E94441E21
:1013000040E162E081E00E942E0CC0E0F0CF0E943C
:10131000651E40E162E081E00E942E0CE8CFC281B0
:10132000CC2329F384E090E00E944C09EECF0E9488
:10133000651EDDCF81E008950C9458090E94011AC2
:101340002FEF84E39CE0215080409040E1F700C003
:10135000000087E797E790930108809300080C94BA
:101360003B210F931F93CF93DF938C01FC01C0812E
:10137000D181CE010E94E01EBE010E948C0CEC01C6
:10138000B8010E949C09882309F4F5C0B801CE0178
:101390000E94EE0E882309F4EEC0CA3CFCE5DF078C
:1013A00009F418C108F066C0C33C9CE5D90709F4EC
:1013B000F2C0B0F5C531FCE5DF07D0F4C2308CE5F2
:1013C000D80708F07FC1C1159CE5D90709F4CEC044
:1013D000C130DC4509F4D5C081E08093640180937D
:1013E0006501C801DF91CF911F910F910C949A096B
:1013F000C531DC4589F70E94A61FF8019281992327
:1014000009F422C28A7A91E009F490E090935F0196
:10141000811118C289E20E942F1F0E94731FDCCF26
:10142000C63C8CE5D80709F4C4C0A8F4C43CECE57C
:10143000DE0709F4B7C0C53CDC4571F6F8018281CE
:10144000882309F498C00E94A61F827209F4AEC0D6
:101450000E94151290C0F8018281C83CFCE5DF07AC
:1014600009F4B3C008F4ACC0882309F484C00E9416
:10147000481181C0C13DECE5DE0709F4F6C0A8F5CE
:10148000CD3C8CE5D80709F4B3C090F4CB3CECE537
:10149000DE0709F4A6C0CC3CDC4509F09DCFF8017D
:1014A0008281882309F467C081E00E94901163C0A3
:1014B000F8018281CF3CFCE5DF0709F4C2C008F4E3
:1014C000ACC0882309F457C00E94CF0F6F3071055C
:1014D0008105910540F00E94CF0F643171058105AF
:1014E000910508F463C08FE0E0CFC43DECE5DE0772
:1014F00009F46CC1F0F4C23D8CE5D80709F4CBC007
:10150000C33DDC4509F068CFF8018281882399F159
:101510000E94CF0F693171058105910540F00E944D
:10152000CF0F623271058105910508F43FC089E152
:10153000BCCFC83DECE5DE0709F4B4C0C93DFCE50D
:10154000DF0709F4B8C0C53DDC4509F045CFF80117
:101550008281882309F461C1109265010E94DF2015
:10156000909363018093620180E23DC1F801828122
:1015700081110E949E0980E0DF91CF911F910F9110
:101580000895F80182818823B1F38091E901816097
:101590008093E901F0CFF8018281882361F30E94F2
:1015A0001E12E9CFF8018281882329F30E940B12D1
:1015B000E2CFF80182818823F1F20E94F910DBCF9B
:1015C0008823C9F20E941111D6CF8823A1F20E946C
:1015D0003011D1CFF8018281882369F20E94601115
:1015E000CACFF8018281882331F20E947811C3CFDB
:1015F000F8018281882309F4BECF0E94CF0F6230A8
:1016000071058105910538F00E94CF0F6530710595
:101610008105910558F282E048CF882309F4ABCFC9
:101620000E94CF0F663071058105910540F00E9440
:10163000CF0F683071058105910508F4B7CF86E0BA
:1016400034CF882309F497CF0E94CF0F69307105FA
:101650008105910540F00E94CF0F6E307105810524
:10166000910508F4A3CF89E020CFF8018281882377
:1016700009F481CF0E94CF0F653171058105910575
:1016800040F00E94CF0F673171058105910508F484
:101690008DCF85E10ACFF8018281882309F46BCFD1
:1016A00088E103CFF8018281882309F464CF80E0C8
:1016B0000E94AB2760CFF8018281882309F45BCFB9
:1016C00082E0F6CFF8018281882309F48ACE0E9455
:1016D0000320811102C00E94E21F0E941B2090E0A3
:1016E0009093340280933302FE01E350FC458091D5
:1016F00033028160E231F105C8F4EF57F44F0C94E6
:10170000DB2F930B9F0BA30BA70BAB0BAF0BB30BF9
:10171000B70BBB0BBF0BC30BC70BCB0BCF0BD30B49
:10172000D70BDB0BDF0B8091330282608093330297
:10173000809133020E941F200E94011A1CCF8091C9
:1017400033028460F3CF809133028860EFCF8091C1
:1017500033028061EBCF809133028062E7CF8091CA
:1017600033028064E3CF809133028068DFCF8091C1
:1017700033028460EACF809133028E7FD7CF80918D
:1017800033028D7FD3CF809133028B7FCFCF809177
:101790003302877FCBCF809133028F7EC7CF80917A
:1017A00033028F7DC3CF809133028F7BBFCF809177
:1017B00033028F77BBCF809133028B7FEACF90913A
:1017C0003302892F97FB87F98058B0CFF8018281C7
:1017D000882361F0109264010E94DF2090936101E0
:1017E0008093600182E00E942C17C5CE8091640135
:1017F00081110FC080916001909161010E94EB20E6
:10180000883C910530F486E20E94021686E20E942E
:10181000DD1682E00E943317AECE80916501811102
:101820000FC080916201909163010E94EB20883C7F
:10183000910530F487E20E94021687E20E94DD16CD
:1018400080E2E8CF85E3E7CD80915F01811104C09C
:1018500089E20E94361FE1CD85E3FBCF8F929F92F4
:10186000AF92BF92CF92DF92EF92FF920F931F93AE
:10187000C12CD12C7601C3949701860104C0000FBE
:10188000111F221F331F6A95D2F74601570104C06A
:10189000880C991CAA1CBB1C8A95D2F7D501C401DF
:1018A000802B912BA22BB32B0091D4011091D50149
:1018B0002091D6013091D701082319232A233B23F5
:1018C00080179107A207B30769F4842F1F910F9126
:1018D000FF90EF90DF90CF90BF90AF909F908F9050
:1018E0000C94441E842F1F910F91FF90EF90DF9076
:1018F000CF90BF90AF909F908F900C94651E0C94EA
:101900004A090C94AF0608950C94830C0C94840C33
:1019100090E080E008950895972F70E027E0929F6F
:10192000600D711D1124FB0196E4899FE00DF11DEE
:101930001124EE0FFF1FEE50FF4F859194910895F3
:10194000FC01EE0FFF1FE25CF54F85919491089525
:10195000CF93DF930E948C0C0E94400EEC01811506
:10196000904408F094C0C11580E3D80708F005C181
:10197000C03ED10508F071C0C03CD10508F0ECC0F4
:10198000C83AD10580F4C53AD10508F0E9C0C130A4
:10199000D10509F46EC020F0C430D10508F069C04B
:1019A000D0E0C0E066C0CD3BD105D0F7C83AD10544
:1019B00009F427C1C93AD10509F426C1CA3AD105AB
:1019C00009F425C1CB3AD10509F424C1CC3AD1059B
:1019D00009F423C1CB3BD10509F422C1CC3BD1058D
:1019E00009F421C1CD3AD10509F420C1C03BD1058C
:1019F00009F41FC1CE3AD10509F41EC1CF3AD10571
:101A000009F41DC1C13BD10509F41CC1C23BD1057C
:101A100009F41BC1C33BD10509F41AC1C43BD1056C
:101A200009F419C1C53BD10509F418C1C63BD1055C
:101A300009F417C1C73BD10509F416C1C83BD1054C
:101A400009F415C1C93BD10509F414C1CA3BD1053C
:101A500009F013C1CAE2D6E40CC0CF3FD10509F0AA
:101A600060F4C03FD10508F086C0C83ED10508F03B
:101A700097CFCE01DF91CF910895CE019F70C11510
:101A800020E2D207B0F30E94A00CEC01F2CFC11506
:101A900084E5D807A0F5C11523E5D20708F08EC06C
:101AA000C11581E5D80708F5C11520E5D20708F46E
:101AB0006EC0CE0154E0969587955A95E1F78370F4
:101AC0009C2F937021E030E002C0220F331F9A95C3
:101AD000E2F73C68382BC695C695C37080E2C89F74
:101AE000E0011124C22BD32BC4CFC11582E5D80746
:101AF00008F050C0DC2FCC27C16FD06ABACFC11517
:101B000026E5D20758F49C2F8827C115D54508F43F
:101B100069C0EC01CC27DF71D062ABCFC11588E57D
:101B2000D80708F43DCFC11529E5D20708F45EC0F7
:101B3000CE0190568115904208F032CF8D2F8F71D3
:101B40000E94C00EDD27D06290E0982F882788275A
:101B50009F71C82BD92B8DCFCE01805C910993CF7B
:101B6000C53AD10509F447C0C63AD10509F446C0C3
:101B7000C3E8D0E47ECFD0657CCFCE019927D3FFD8
:101B800003C0EC01D86C75CFEC01D06C72CFDF7064
:101B9000D06A6FCFCE018370992721E030E002C078
:101BA000220F331F8A95E2F7C695C69580E2C89F3B
:101BB000E0011124C22BD32BDC685BCFCE018370F4
:101BC000992721E030E002C0220F331F8A95E2F707
:101BD000C695C69580E2C89FE0011124C22BD32B85
:101BE000DA6847CFEC01C46FD06A43CFDC2FCC2733
:101BF000C06FD06A3ECFC1E8D0E43BCFC2E8D0E4AA
:101C000038CFC2EED4E435CFC9EED4E432CFCAEE39
:101C1000D4E42FCFC5EBD4E42CCFC6EBD4E429CF4A
:101C2000C3EBD4E426CFC4EBD4E423CFC7EBD4E496
:101C300020CFCCECD4E41DCFCDECD4E41ACFC3E854
:101C4000D5E417CFCAE8D5E414CFC2E9D5E411CF63
:101C5000C4E9D5E40ECFC1E2D6E40BCFC3E2D6E4AB
:101C600008CFC4E2D6E405CFC5E2D6E402CFC6E28F
:101C7000D6E4FFCEC7E2D6E4FCCEC0E0D4E4F9CE91
:101C80008238910549F1B0F48133910509F45CC0C3
:101C900048F48932910509F452C08A32910509F459
:101CA00058C008958533910509F444C089339105DE
:101CB00099F00895833E910531F138F4803E910505
:101CC00091F0823E9105B1F00895863E910511F1A3
:101CD000873E910541F10895209133022370C9F0A8
:101CE00080EE90E008952091330220FF12C089E336
:101CF00090E008952091330222FF0BC024FF2EC0F4
:101D000090E080E008952091330222FD2AC024FD56
:101D1000F7CF08952091330223FFFBCF24FDF0CFAE
:101D200087EE90E008952091330223FFF0CF86EEF6
:101D300090E008952091330225FD16C0089520916A
:101D4000330225FD14C008952091330226FD12C0F0
:101D500008952091330226FD10C0089583EE90E08F
:101D6000089582EE90E0089589E290E0089585E379
:101D700090E008958AE290E0089581E390E0C9CF71
:101D8000CF93C82F0E941B20282F30E030933402BD
:101D90002093330282FF06C09C2F9871983079F40B
:101DA000C77FC46083FF06C09C2F9871983171F47F
:101DB000C77EC46184FDC77E8C2FCF9108959C2F70
:101DC0009471943079F7CB7FC860ECCF9C2F9471DD
:101DD000943181F7CB7EC861EDCF08950F931F93A7
:101DE000CF938C01FB018281811106C0C1E08C2F51
:101DF000CF911F910F910895C0917301C11125C01A
:101E000006311C4599F70E94ED0E81E08093730125
:101E10000E94DF20909372018093710110926601FD
:101E2000109268011092670110926A011092690184
:101E300010926C0110926B0110926E0110926D0164
:101E40001092700110926F01D2CF80917101909128
:101E500072010E94EB20883C910540F6809166015A
:101E6000E82FF0E0EE0FFF1FE959FE4F11830083CA
:101E70008F5F80936601C0E0BACFCF92DF92EF927E
:101E8000FF920F931F93CF93DF93E901662309F429
:101E900066C0E42EF12CEFEFF0E0E61BF109EE9DB9
:101EA0008001EF9D100DFE9D100D1124212FE12FBB
:101EB000FF27EE1AFF0A5CE3C52ED12CB6010E9463
:101EC000B32FFB01BC01E69EC001E79E900DF69E7C
:101ED000900D1124B6010E94B32FE230F10589F173
:101EE00068F4812F262F210F309781F0242F461B75
:101EF000319761F080E020E040E008C0E430F10577
:101F000051F128F1842F861B3597A1F7E42FF0E0DB
:101F1000E85AF54F4491E22FF0E0E85AF54F9491DA
:101F2000E82FF0E0E85AF54FE49149839883EA837B
:101F3000DF91CF911F910F91FF90EF90DF90CF90A5
:101F40000895862F810FE42F412F2E2FDFCFE42F0E
:101F5000E61B842FF9CF842F462F410FD7CF842F34
:101F6000242FD4CF88E090E00C94E92FAB01BC0182
:101F700088E090E00C940730E1E0F2E083E08083B9
:101F8000109202028FEF828383836091010270912D
:101F9000020280910302909104020C94B60F6091AA
:101FA000010260FF06C066956F7370E090E080E00C
:101FB000089560E070E0CB01089580910102E9E0AE
:101FC000F2E080FF06C06CE070E089E092E00C94E3
:101FD000CC14118210821282339682E0ED32F8071F
:101FE000C1F7F1CFE9E0F2E0818360834283339669
:101FF00092E0ED32F907C1F70C94DD0FEF92FF92FA
:102000000F931F93CF93DF9300D01F92CDB7DEB70E
:10201000182FE92EF62E042F8091010290910202D2
:10202000A0910302B09104028093050290930602EE
:10203000A0930702B09308028091010280FF1FC0A5
:102040009E012F5F3F4F812F9E2D0E943D0F80915B
:10205000050210FB87F98093050216958091060210
:102060008078812BE0FA87F980930602F0920702CC
:10207000009308024B8169818A810E94F20F0F90C0
:102080000F900F90DF91CF911F910F91FF90EF90E4
:1020900008956F927F928F929F92AF92BF92CF924C
:1020A000DF92EF92FF920F931F93CF93DF93EC0198
:1020B000662E742E8091010280FF8CC0982F9E772F
:1020C000923079F5CE010E94FE0F809101029C2F83
:1020D000C0FB87F980930102969580910202807877
:1020E000892BD0FB87F980930202609203027092E1
:1020F00004026091010270910202809103029091AA
:102100000402DF91CF911F910F91FF90EF90DF902C
:10211000CF90BF90AF909F908F907F906F900C94D6
:10212000B60FE82FE695EF739EE39E0F9F739430F2
:1021300018F470900402C9CF9AE39E0F9F739930F0
:1021400070F4881F8827881F90910202292F220F80
:10215000C22FC82B97FB992790F9D92FB6CF87E2CA
:102160008E0F8F738A3008F0B0CFE951FF0B2FEF3D
:10217000E0FF21E0EE7FE25CF54F859194916CE009
:1021800070E00E94B32F26035001279FB00C11244A
:102190007E0188E9E81A8EEFF80A09E012E08DE284
:1021A000C82E82E0D82E98E6892E99249394C701F0
:1021B000B4010E94B32F9801472D662D0E943D0F58
:1021C000EA0CFB1C0D5F1F4FC016D10681F70E9461
:1021D000DD0F7BCFDF91CF911F910F91FF90EF909B
:1021E000DF90CF90BF90AF909F908F907F906F9037
:1021F0000895E1E0F2E02081221F2227221F309182
:102200000202432F440F842F822B37FB992790F92A
:10221000089668E671E00E94C72F438162810C94A2
:10222000491020910102221F2227221F3091020211
:10223000432F440F842F822B37FB992790F9883046
:10224000910540F4805A9E4F409104026091030230
:102250000C944910089768E671E00E94C72FF4CFEC
:1022600060910302683F90F4685F80910102881FCB
:102270008827881F90910202292F220F97FB992708
:1022800090F940910402822B0C9449106FEFEDCF2E
:1022900060910302683090F0685080910102881FBD
:1022A0008827881F90910202292F220F97FB9927D8
:1022B00090F940910402822B0C94491060E0EDCF1C
:1022C00040910402483F90F4485F80910102881FCA
:1022D0008827881F90910202292F220F97FB9927A8
:1022E00090F960910302822B0C9449104FEFEDCFCF
:1022F00040910402483090F0485080910102881FBC
:102300008827881F90910202292F220F97FB992777
:1023100090F960910302822B0C94491040E0EDCFBC
:102320009091010290FF42C09178811126C0926085
:102330009093010260910102709102028091030268
:10234000909104020E94B60F80910102982F9E770F
:102350009230D9F410928901881F8827881F9091A4
:102360000202292F220F97FB992790F9409104022E
:1023700060910302822B0C944910833210F0946414
:10238000D7CF8F73880F982BD3CF982F96959F73A5
:102390002EE3290F2F73273120F491E090938901C8
:1023A000DBCF995D9F739A30B8F6D4CF08958091B2
:1023B000E90181608093E90181E080938A010E94B4
:1023C0000320811104C00E94E21F0E94BC0F0E94E2
:1023D000B20F609301027093020280930302909304
:1023E00004026E7761F40E94BC0F0E94B20F6093EA
:1023F000010270930202809303029093040281E031
:10240000809389018091010280FF04C086958F73BB
:102410000C94901108958091010286958F738F5FBF
:10242000833208F081E00C9490118091010286952E
:102430008F73815009F482E20C9490119091010203
:10244000892F8E7F90FF816080930102609101024D
:102450007091020280910302909104020E94B60FD3
:102460008091010280FF04C086958F730C949011B7
:10247000109289012FEF80E792E021508040904038
:10248000E1F700C000000C94DD0FCF93C82F8091BE
:102490008701909188010E94EB20EC2FF0E0EC5A2C
:1024A000F54FE491E817190611F008F042C00E94B8
:1024B000DF2090938801809387016091860170E00E
:1024C00090E080E00E94B42D20E030E04FE753E43C
:1024D0000E94D72C2BED3FE049E450E40E94DD2E12
:1024E0000E944A2F0E94512D2BE43AE34EE25FE313
:1024F0000E946A2C20EF3BEF48ED52E40E94DD2E53
:102500000E94832D462F80910102881F8827881FF3
:1025100090910202292F220F97FB992790F9609141
:102520000302822B0E94FE0F809186018F5F8093B1
:102530008601CF910895CF93C82F80918401909107
:1025400085010E94EB20EC2FF0E0EF5AF54FE4916B
:10255000E817190609F0E8F40E94DF20909385013E
:102560008093840140910402609103028091820172
:10257000909183010E94FE0F8091820190918301CE
:10258000019668E671E00E94B32F909383018093D7
:102590008201CF910895CF92DF92FF920F931F9304
:1025A000CF93DF93F82E80918001909181010E945A
:1025B000EB20EF2DE695F0E0E25BF54FE491E817B4
:1025C000190609F0A8F50E94DF20909381018093FD
:1025D000800109E012E0D0E0C0E088E6C82EDD24EA
:1025E000D39480917E0190917F018C0F9D1FB60145
:1025F0000E94B32F980140910402609103020E944F
:102600003D0F6E960D5F1F4FC83681E0D80749F722
:102610000E94DD0F80917E0190917F01F0FE10C03D
:102620000196BE010E94B32F90937F0180937E019B
:10263000DF91CF911F910F91FF90DF90CF90089580
:102640000197F2CFCF92DF92EF92FF920F931F93F9
:10265000CF93DF93C82FFF24FA9480FD02C0FF249C
:10266000F39480917C0190917D010E94EB20C695AE
:10267000EC2FF0E0E55BF54FE491E817190611F057
:1026800008F051C00E94DF2090937D0180937C016F
:1026900009E012E0D0E0C0E0F8011182108212825D
:1026A00094E0C92ED12CE12C80917B018E0D87FD09
:1026B000845F082E000C990BC817D907E9F48091A4
:1026C00004028C9DA0018D9D500D112455954795B8
:1026D0005595479580910102881F8827881F909102
:1026E0000202592F550F97FB992790F99801609195
:1026F0000302852B0E943D0FEF0CF1E0CF1AD108A9
:1027000099F621960D5F1F4FCC30D10529F60E9416
:10271000DD0F80917B0191E0F91210C081110CC096
:102720008BE080937B01DF91CF911F910F91FF9000
:10273000EF90DF90CF9008958150F3CF90E0019615
:10274000BE010E94C72FEDCF0F931F93CF93DF934E
:10275000C82F8091790190917A010E94EB20EC2F93
:10276000F0E0E85BF54FE491E817190611F008F086
:1027700052C00E94DF2090937A0180937901C9E0D2
:10278000D2E0FE01118210821282339682E0ED3295
:10279000F807C1F710E000E080917801082E000CE6
:1027A000990B08171907E4F180910201082E000C1B
:1027B000990B80179107A4F180910102881F882747
:1027C000881F90910202592F550F97FB992790F976
:1027D0009E014091040260910302852B0E943D0FEF
:1027E0000F5F1F4F23960C301105B1F60E94DD0FCD
:1027F0008091010190917801980F90937801209138
:102800000201280F20930201121614F49B301CF0D1
:10281000819580930101DF91CF911F910F910895D0
:10282000198218821A82DCCFEF92FF920F931F93C6
:10283000CF93DF9380917601909177010E94EB20F6
:10284000883E9340C8F10E94DF20909377018093E7
:102850007601C0917401D09175012196C170DD2778
:10286000D0937501C093740189E0E82E82E0F82EC0
:1028700010E008E7812F86958C0F9D2F911D8170A8
:10288000992797014091040260910302FC010E9F79
:10289000C0010F9F900D11240E943D0F1F5FF3E0B8
:1028A000EF0EF11C1C3031F7DF91CF911F910F918A
:1028B000FF90EF900C94DD0FDF91CF911F910F915E
:1028C000FF90EF90089580918901882391F1909174
:1028D0000102892F86958F732EE3280F2F732430E2
:1028E00018F482500C9445122AE3280F2F732330DA
:1028F00018F486500C949B1227E3280F2F73263070
:1029000018F489500C94CB1221E3280F2F73263032
:1029100018F48F500C9422132BE2280F2F732330BE
:1029200018F485510C94A4139E77903311F40C94F1
:10293000141408953BB1242F209523233BB1432B3E
:102940003FB7F894FC01680F791FE617F70711F4F9
:102950003FBF0895819198E04BB9000000C087FF08
:102960002BB9880F000000C000C000C02BB900C008
:102970009A9591F7EACF2AB1242B2AB99B01220F0D
:10298000331F620F731F0E949A1487EC90E0019727
:10299000F1F700C00000089548E00C94BB14909338
:1029A000900180938F010895E0918F01F091900143
:1029B000309721F00190F081E02D099480E0089596
:1029C000E0918F01F0919001309721F00280F38126
:1029D000E02D09940895E0918F01F09190013097D6
:1029E00021F00480F581E02D0994089520918D0156
:1029F00030918E012817390771F090938E018093E2
:102A00008D01E0918F01F0919001309721F00680C7
:102A1000F781E02D0994089520918B0130918C016C
:102A20002817390771F090938C0180938B01E09106
:102A30008F01F0919001309721F00084F185E02D15
:102A4000099408950C94380881E008950E94D620D6
:102A50000E94B1060E944C210C94D711BF92CF92D4
:102A6000DF92EF92FF920F931F93CF93DF93CDB737
:102A7000DEB72A970FB6F894DEBF0FBECDBF0E9417
:102A8000CE070E942415882309F471C082E9C82E5C
:102A900081E0D82E10E000E0B02E802F0E940E08BA
:102AA000E82EF601F1906F01F81609F45AC08091F2
:102AB000E90181FD0E94140890E080E0FE242F2DA2
:102AC00030E0482FB901082E02C0759567950A9429
:102AD000E2F760FF41C08E83BF8281E090E06C012D
:102AE00002C0CC0CDD1C4A95E2F72E2D30E02C21E3
:102AF0003D21232B09F480E088870E94DF2081603C
:102B0000782F9A8789874E815F8168858A850E94A0
:102B1000D815F801EE56FE4F80818C2580830E94E7
:102B2000DF220E94D41490919101891789F10E94AB
:102B3000D414809391012A960FB6F894DEBF0FBE8D
:102B4000CDBFDF91CF911F910F91FF90EF90DF905C
:102B5000CF90BF900C94860C01968730910509F0B8
:102B6000B0CF0F5F1F4F0A30110509F095CF8FEFDF
:102B700089838A831B820E94DF208160782F9D8356
:102B80008C8349815A816B818D810E94D815C7CF72
:102B90002A960FB6F894DEBF0FBECDBFDF91CF915E
:102BA0001F910F91FF90EF90DF90CF90BF9008950D
:102BB000CF93DF93CDB7DEB72B970FB6F894DEBF78
:102BC0000FBECDBF4F83588769877A878B871E8258
:102BD0001D8285E0FE013796DE01119601900D926F
:102BE0008A95E1F749815A816B817C818D819E8133
:102BF0002B960FB6F894DEBF0FBECDBFDF91CF91FD
:102C00000C94B31CCF93C82F882309F4D4C0823806
:102C1000C1F40E94D41481FDCEC089E30E942F1F0D
:102C20000E94731F2FEF81EE94E02150804090406E
:102C3000E1F700C0000089E30E94361FCF910C9499
:102C4000731F8338A1F40E94D41480FDB4C083E5BF
:102C50000E942F1F0E94731F2FEF81EE94E02150DE
:102C600080409040E1F700C0000083E5E5CF843864
:102C7000A1F40E94D41482FD9EC087E40E942F1FFD
:102C80000E94731F2FEF81EE94E02150804090400E
:102C9000E1F700C0000087E4CFCF8CEF8C0F813AC2
:102CA00048F48C2F0E94E424811185C08C2F0E944F
:102CB0002F1FC4CF80E28C0F883048F4C77081E0AA
:102CC00001C0880FCA95EAF70E94A91FB7CF8BE50C
:102CD0008C0F833068F481E890E0C53A31F083E8E6
:102CE00090E0C63A11F482E890E0CF910C94F6148B
:102CF00088E58C0F853108F05EC082EE90E0C83A1E
:102D000009F456C089EE90E0C93A09F451C08AEE40
:102D100090E0CA3A09F44CC085EB90E0CB3A09F454
:102D200047C086EB90E0CC3A09F442C083EB90E0D8
:102D3000CB3BF1F184EB90E0CC3BD1F187EB90E021
:102D4000CD3AB1F18CEC90E0C03B91F18DEC90E08C
:102D5000CE3A71F183E891E0CF3A51F18AE891E0FF
:102D6000C13B31F182E991E0C23B11F184E991E08C
:102D7000C33BF1F081E292E0C43BD1F083E292E008
:102D8000C53BB1F084E292E0C63B91F085E292E06F
:102D9000C73B71F086E292E0C83B51F087E292E0D7
:102DA000C93B31F090E080E0CA3B11F48AE292E046
:102DB000CF910C940C15CF910895882309F44BC042
:102DC000823871F40E94D41481FF45C089E30E94C7
:102DD0002F1F0E94731F89E30E94361F0C94731FDC
:102DE000833859F40E94D41480FF35C083E50E94D3
:102DF0002F1F0E94731F83E5EFCF843859F40E9480
:102E0000D41482FF28C087E40E942F1F0E94731FE2
:102E100087E4E2CF9CEF980F913AF0F290E2980F9E
:102E2000983050F4877091E001C0990F8A95EAF7C5
:102E3000892F0E94AF1FD2CF9BE5980F933020F4CB
:102E400090E080E00C94F614885A853120F490E0EC
:102E500080E00C940C150895882321F00E94A91F8E
:102E60000C94731F0895882321F00E94AF1F0C94C7
:102E7000731F08958F929F92AF92BF92DF92EF924D
:102E8000FF920F931F93CF93DF937C01D62FC72F11
:102E9000FC01058102950F70128111110E94C81F5B
:102EA0000E946C1FD82E882371F0112331F180E22B
:102EB0008D0F883010F182E00E94561F0E946C1F17
:102EC00091E0D82ED926BC2EB2949FE0B922EB2DEA
:102ED000F0E0E359F84E0C94DB2F7F177F17CF17E4
:102EE000CF1711183918181818187B181818161930
:102EF0001619A01918181818A919D12CE4CF0C2FDD
:102F00000F70C07F11F00295007F1123A9F00023FC
:102F100059F080E28D0F883010F0D11109C0802F58
:102F20000E94A91F0E94731F8D2F0E94021614C0B9
:102F3000802F0E94BA1FF6CF8D2F0E94DD1600232E
:102F400059F080E28D0F883010F0D11124C0802F0D
:102F50000E94AF1F0E94731FDD2009F401C20E946E
:102F6000491F80FDFDC1F70112820E94431F0E948C
:102F7000441EC7010E94BC190E94431FDF91CF91DC
:102F80001F910F91FF90EF90DF90BF90AF909F90B7
:102F90008F900C94651E802F0E94C01FDBCFFC2FEA
:102FA000FF70BF2EC07FC03219F0B29480EFB822FC
:102FB000DD2369F0D13029F1112369F1002359F0A3
:102FC000F701858180FFB0CF8F70858304C0112306
:102FD00061F0011104C08B2D0E942C17BDCF8B2DE9
:102FE0000130D1F70E94DC1FB7CF011106C00E944B
:102FF000DF1F8B2D0E943317AFCF013009F4ACCF08
:10300000F6CF112321F0063008F0A6CFE4CF05302B
:1030100008F0A2CFEECF002361F38D2F0E94DD16C2
:103020009BCF8C2F86958695837079F08130B9F08F
:1030300098E0B91609F49BC0B91608F48DCF86EF55
:103040008B0D823008F493C087CF8D2F9C2F937007
:10305000111102C090E080E00E94F6147DCF8D2F08
:103060009C2F9370111102C090E080E00E940C151B
:1030700073CF112309F1D53F99F0D63FB9F0D43F72
:1030800049F480912D0290912E02816090932E023E
:1030900080932D028D2F0E94E8210E94D4225CCFC4
:1030A00080912D0290912E028260F0CF80912D02AE
:1030B00090912E028460EACFD53F89F0D63FA9F0E7
:1030C000D43F49F480912D0290912E028E7F9093EF
:1030D0002E0280932D028D2F0E945022DECF8091F0
:1030E0002D0290912E028D7FF2CF80912D02909132
:1030F0002E028B7FECCF8C2F837009F04BC0111107
:1031000036C02D2F229526952770220F220F6D2F66
:103110006F70862E912CB12CA12C022E04C0880C2D
:10312000991CAA1CBB1C0A94D2F760E070E0CB018A
:10313000D4FF0FC06FE070E080E090E004C0660F45
:10314000771F881F991F2A95D2F7609570958095F3
:103150009095C695C695C370C23071F0A0F46829E9
:1031600079298A299B29C13091F00E94F61D0E947D
:10317000D4140E94860CF0CE682979298A299B29CB
:103180000E94081EF4CF0E94F61DC501B4010E94E2
:10319000E41DEDCF8695112311F08C2F81708823CB
:1031A00031F32D2F229526952770220F220F6D2F98
:1031B0006F70862E912CB12CA12C022E04C0880C8D
:1031C000991CAA1CBB1C0A94D2F760E070E0CB01EA
:1031D000D4FF0FC06FE070E080E090E004C0660FA5
:1031E000771F881F991F2A95D2F760957095809553
:1031F0009095C695C695C370C23051F080F4682989
:1032000079298A299B29C13071F00E94BB1EAFCF5A
:10321000682979298A299B290E94CD1EA8CF0E945E
:10322000BB1EC501B4010E94A91EA1CFE0E2ED0FB3
:10323000E53108F066C0F0E0E05EF64E0C94DB2F5E
:10324000351935193519351935193519351935190E
:1032500035193519351935193519351935193519FE
:10326000461954195B1962196C19DF708C2F8F7114
:10327000112331F00E94441E8D2F0E942C17D8CEAE
:103280000E94651E8D2F0E943317D2CE112341F06C
:10329000053008F0CDCE8C2F8F710E94881EC8CECD
:1032A000063008F0C5CEF7CF8C2F8F71112339F07F
:1032B0000E94441EBDCE8C2F8F711123C9F30E9432
:1032C000651EB6CE112329F08C2F8F710E942F1E00
:1032D000AFCE0E942A1EACCE112349F0CF718C2FA5
:1032E0000E94441E63E08C2F0E944D1FA1CE81E0FE
:1032F0000E94561F023008F49BCE82E00E94561FA7
:1033000097CE112349F0002321F08D2F0E94021641
:103310008FCE8C2F8F71CCCF002379F0D93349F425
:10332000FFEF27EE83E0F15020408040E1F700C03E
:1033300000008D2F0E94DD167BCE8C2F8F71BFCFAA
:103340004C2F4F706D2FC7010E94880C0E945C1D8E
:1033500003CE4C2F4F706D2FC7010E948B0CFCCDFC
:10336000DF91CF911F910F91FF90EF90DF90BF9071
:10337000AF909F908F9008950F931F93CF93DF93FB
:10338000EC01988189812B813C81232B39F08F3F7F
:1033900019F481E09F3F19F080E001C081E080FDD9
:1033A00017C0CE010E94B109882391F0688179810C
:1033B0008A810E942C1F8C010E94DF1E0E94E11D49
:1033C000B801CE01DF91CF911F910F910C943A1764
:1033D000DF91CF911F910F9108950E94C81F0E9405
:1033E000D91F0E943D1F0E94731F0E946A230E94E2
:1033F000D42290E080E00E94F61490E080E00C94EB
:103400000C150E94B71F0C94ED190E94221FE92F82
:10341000E295EF70E250EE30E0F4F0E0EE5EF54E53
:103420000C94DB2F201A201A291A291A2B1A291A70
:10343000291A291A201A201A301A291A291A301A78
:10344000803F19F020F4803E20F481E00895843F0D
:10345000E1F380E00895803EC0F3813FD1F7F5CFDE
:1034600093FB882780F90895CF93DF9300D000D095
:103470001F92CDB7DEB70F900F900F900F900F9067
:10348000DF91CF910895CF93DF9300D000D000D08B
:10349000CDB7DEB726960FB6F894DEBF0FBECDBF10
:1034A000DF91CF9108951F93CF93DF93C0919C013B
:1034B00016E080919D018C1304C0DF91CF911F9184
:1034C0000895D0E01C9FF0011D9FF00D1124E256DD
:1034D000FE4F4081518162817381848195810E9478
:1034E000431A2196C770E5CF4091CE015091CF018C
:1034F0006091D0017091D1018091D2019091D3015E
:103500000C94431A1F93CF93DF938091D301807F54
:10351000D1F48091D0018823B1F080919C01D091A9
:103520009D01B091CE01C091CF014091D101509148
:10353000D201A1E0BF3F09F0A0E0BA01609570950B
:1035400016E0D81304C0DF91CF911F91089521E0B8
:103550004115510521F02A2FCF3F09F020E090E0DE
:1035600020FD38C0189FF001199FF00D1124E2567C
:10357000FE4F21812C132EC020812B132BC02281C2
:10358000211128C0238134812417350700F1241B21
:10359000350B283C3105F0F42091D3012F702061C8
:1035A0002093D30126E0289FF001299FF00D1124DC
:1035B000ED55FE4F80818F70806180838EEC91E0AD
:1035C0000E94BC19DF91CF911F910C94531A260FC2
:1035D000371FDFCF01968770B4CFAF92BF92CF92E3
:1035E000DF92EF92FF920F931F93CF93DF93CDB7AC
:1035F000DEB761970FB6F894DEBF0FBECDBF8C016A
:1036000085E0F801DE011D9601900D928A95E1F7A3
:10361000D8014C9111965C9111971296EC903091D3
:10362000CE016091CF018091D1019091D20121E032
:10363000009731F06F3F19F421E03F3F09F020E09F
:10364000B22FB170BB2E20FD80C1F801C380D480A1
:10365000A090D001AA2009F427C1C816D906D0F13C
:10366000D601A81BB90BCD01FF24F394883C91052A
:1036700008F0F12C8091D301982F907FFF2009F45E
:10368000CAC0911187C0FE2C651329C0341327C00E
:10369000E11025C08F7080618093D3010E94741A5D
:1036A0008EEC91E00E94BC198091D301F8018583D2
:1036B0008F2D61960FB6F894DEBF0FBECDBFDF91A0
:1036C000CF911F910F91FF90EF90DF90CF90BF901F
:1036D000AF900895809590958C0D9D1DC5CF81E08C
:1036E000CD2831F05F3F19F481E04F3F09F080E0D1
:1036F00080FD24C081E08E25F82FF170DF2E80FF41
:103700003FC080919C0120919D0136E0821318C03A
:103710004D875E878D859E850E94221F292F2295C9
:103720002F70223008F1243030F59F7009F1D80154
:1037300015969C91907FE1F4FB2CBACF80E0DCCF12
:1037400090E0389FF001399FF00D1124E256FE4FB2
:103750006181561306C06081461303C062816E11F9
:103760000FC001968770D2CF9F7011F0882321F38C
:10377000805E883008F3C8010E94BC19BD2CDCCFE4
:10378000EE2009F495CF8091D30181608093D3011D
:10379000F12C8ECF651312C0341310C0E1100EC08F
:1037A000F8018583C8010E94BC1986E0F801AEECDF
:1037B000B1E001900D928A95E1F741C04D875E8797
:1037C0008D859E850E94051A882309F4C8C0EE20C5
:1037D00009F4C5C08091D301803270F02091CE01F0
:1037E0003091CF0138872F831986DB86CA868C8774
:1037F000CE0107960E94BC1986E0F801AEECB1E05C
:1038000001900D928A95E1F70E94821A0E94741A23
:10381000FF24F3944DCF911115C07C2DD98AC88A0D
:103820006E2D89890E94341A8EEC91E00E94BC1999
:1038300086E0EEECF1E0DF011D928A95E9F70E9447
:10384000741A36CF651312C0341310C0E1100EC0C5
:10385000F8018583C8010E94BC19EEECF1E086E016
:10386000DF011D928A95E9F7FA2C22CF4D875E87FA
:103870008D859E850E94051A882309F470C0EE206C
:1038800009F46DC08091D301803208F4B5CF209146
:10389000CE013091CF013A8329831B82DD82CC8215
:1038A0008E83CE010196A6CFC816D90638F1F6014F
:1038B000E81BF90BCF01F12C883C910508F03DC0C5
:1038C000FE2CEE2009F44BC0651326C0341324C02F
:1038D0008091D30180FD17C0982F907FA1F0D8016F
:1038E00015968C931597903F09F45CCF982F907F95
:1038F000905F8F70892B15968C9354CF80959095FF
:103900008C0D9D1DD8CF86E0F801AEECB1E00190A2
:103910000D928A95E1F7CCCE4D875E878D859E8589
:103920000E94051A811168CF8091D3018160809334
:10393000D301C8010E94BC19BBCE7C2DD98AC88A8C
:103940006E2D89890E94341A73CFEE2041F04D8785
:103950005E878D859E850E94051A81114DCFC80115
:103960000E94BC1955CF1F93CF93DF93CDB7DEB71D
:103970002C970FB6F894DEBF0FBECDBF4F8358878C
:1039800069877A878B879C87CE0107960E94ED1AFC
:10399000882309F442C09F8188852A853B85232B93
:1039A00039F08F3F19F481E09F3F19F080E001C0AA
:1039B00081E080FD08C04F81588569857A858B85B7
:1039C0009C850E94431A16E080919C0190919D0174
:1039D000891709F467C0819FC001112482569E4F48
:1039E0000E94ED1A882309F45DC0E0919C011E9F9E
:1039F000F0011124E256FE4F4081518162817381B2
:103A0000848195810E94431A80919C0190E00196E7
:103A10008770992780939C01D7CF86E0FE01379667
:103A2000DE01119601900D928A95E1F79F818885BC
:103A30002A853B85232B39F08F3F19F481E09F3F86
:103A400019F080E001C081E080FDBDCF20919D0193
:103A500030E0C90101968770992740919C01481771
:103A6000190699F096E0929FD001939FB00D112412
:103A7000A256BE4FFE01319601900D929A95E1F744
:103A800080939D010E94531A9ECF0E94011A1092AA
:103A90009D0110929C0186E0EEECF1E0DF011D92A9
:103AA0008A95E9F72C960FB6F894DEBF0FBECDBF0E
:103AB000DF91CF911F910895EF92FF920F931F9383
:103AC000CF93DF938C01892B81F0F12CEE24E394CA
:103AD000E8012196F8018491843770F4843008F06D
:103AE0005FC08130B1F08230A1F1DF91CF911F91A1
:103AF0000F91FF90EF900895853709F44CC008F4BA
:103B00003DC09CE7980F903780F78F770E94DD16B5
:103B100049C00E5F1F4FFE01849190E2980F9830CC
:103B200060F48770FE2D01C0FF0F8A95EAF78F2F92
:103B30000E94CB1F0E94731F02C00E9402168F2D8D
:103B4000815030F2EFE9FFE03197F1F700C000005B
:103B5000F7CF0E5F1F4FFE01849190E2980F9830CF
:103B600050F48770FE2D01C0FF0F8A95EAF78F2F62
:103B70000E94D11FDFCF0E94DD16E1CF0E5F1F4FE5
:103B8000FE01C491C150D8F28FE99FE00197F1F78F
:103B900000C00000F7CF0E5F1F4FFE01F490CFCFA3
:103BA0000E9402168E01CBCF08950E94D41D60930F
:103BB000D8017093D9018093DA019093DB010C94C2
:103BC000ED1908950C94D51D0F931F930091D80102
:103BD0001091D9012091DA013091DB01602B712B1A
:103BE000822B932B1F910F910C94D51D0F931F9334
:103BF0000091D8011091D9012091DA013091DB01B7
:103C000060237123822393231F910F910C94D51D60
:103C10000F931F930091D8011091D9012091DA01DF
:103C20003091DB0160277127822793271F910F9125
:103C30000C94D51D0C94D41D0C941A1E0E941C1EAD
:103C40006093D4017093D5018093D6019093D701EE
:103C50000C94ED1960E070E0CB010C941E1E0F93E4
:103C60001F9341E050E060E070E08A019B0104C0D6
:103C7000000F111F221F331F8A95D2F7C901B80107
:103C80001F910F910C941E1E0F931F9341E050E063
:103C900060E070E004C0440F551F661F771F8A95CF
:103CA000D2F78091D4019091D501A091D601B09125
:103CB000D7018A019B01082B192B2A2B3B2BC90109
:103CC000B8011F910F910C941E1E0F931F9341E09A
:103CD00050E060E070E004C0440F551F661F771F7E
:103CE0008A95D2F7CB01BA01609570958095909531
:103CF0000091D4011091D5012091D6013091D701C6
:103D000060237123822393231F910F910C941E1E15
:103D10000F931F9341E050E060E070E004C0440F57
:103D2000551F661F771F8A95D2F78091D401909115
:103D3000D501A091D601B091D7018A019B01082736
:103D400019272A273B27C901B8011F910F910C940D
:103D50001E1E0F931F930091D4011091D501209145
:103D6000D6013091D701602B712B822B932B1F91A1
:103D70000F910C941E1E0F931F930091D40110916C
:103D8000D5012091D6013091D70160237123822380
:103D900093231F910F910C941E1E0F931F9300915C
:103DA000D4011091D5012091D6013091D70160271F
:103DB0007127822793271F910F910C941E1E08953F
:103DC000BF92CF92DF92EF92FF920F931F93CF9308
:103DD000DF938C01C090D401D090D501E090D60142
:103DE000F090D7018091D8019091D901A091DA018A
:103DF000B091DB01C82AD92AEA2AFB2ACFE1D0E018
:103E0000BC2ED701C6010C2E04C0B695A795979578
:103E100087950A94D2F780FD0EC0219788F7B12CC0
:103E20008B2DDF91CF911F910F91FF90EF90DF903D
:103E3000CF90BF900895B8018C2F0E94A80C0197D5
:103E400061F3EECFCF93DF93EC010E94E01EBE0141
:103E5000DF91CF910C94A80CCB010C94221F682FFA
:103E600080910301909104010C945820682F809157
:103E70000301909104010C945A20809103019091C8
:103E800004010C945C208091DC01859585958595D5
:103E900008958091DC018770089598E0899F9001D2
:103EA0001124622B6093DC010C94441E9091DC0180
:103EB000809589238093DC01282F277061F4282FB7
:103EC000082E000C330B9217130629F08595859563
:103ED00085950C94651E08959091DC01977081E0A2
:103EE00009F480E00895E0910301F09104018091CC
:103EF000E8018083E0910301F091040180819091B9
:103F0000E701892B8083E0910301F0910401808116
:103F10009091E601892B80839091DD01992381F0B6
:103F2000E0910301F09104018081892B80838091CD
:103F30000301909104010E94242081111092DD015F
:103F400080910301909104010C94E0148091E801A8
:103F500008959091E801892B8093E8010895982FA6
:103F600090958091E80189238093E801089510924B
:103F7000E80108959091E701892B8093E701089566
:103F8000982F90958091E70189238093E701089508
:103F90001092E70108959091E601892B8093E60144
:103FA0000895982F90958091E60189238093E601EA
:103FB00008951092E60108958093DD01089510920E
:103FC000DD0108956DEE7EEF90E080E00E941330F9
:103FD00060E082E090E00E94F52F60E083E090E0F6
:103FE0000E94F52F60E084E090E00E94F52F60E0F1
:103FF00085E090E00E94F52F40E050E0BA0188E0B3
:1040000090E00C94073090E080E00E94EF2F21E0D8
:104010008D3E9E4F09F020E0822F089582E090E0CF
:104020000C94E12F83E090E00C94E12F682F83E063
:1040300090E00C94F52F84E090E00C94E12F682F31
:1040400084E090E00C94F52FFC0131969C01285FF0
:104050003F4F80E0919191118F5FE217F307D1F705
:1040600008959C01FC0132969FEF80E04191461734
:1040700051F09F3F19F4411101C0982F8F5F863096
:10408000A9F79F3F09F40895290F311D97FD3A952F
:10409000F90162830895FC01329608962191261356
:1040A00003C0DF0111971C92E817F907B9F70895CB
:1040B0000C9431200C944B20FC011182128213824B
:1040C00014821582168217820895809139028430F5
:1040D00039F11092EA0188E190E020E40FB6F894FB
:1040E000A895809360000FBE2093600080E00E943E
:1040F000860C83B7817F846083BF83B7816083BF71
:104100007894889583B78E7F83BF0FB6F894A8956F
:1041100080916000886180936000109260000FBE03
:10412000089508950895CF930E9491200E94CE078C
:104130000E949220C0E08C2F0E940E08811105C0C1
:10414000CF5FCA30C1F7CF91089581E0FCCF0E94C4
:10415000011A0E94D4140C94860C1F920F920FB671
:104160000F9211248F939F93AF93BF938091EA0195
:10417000811113C080912F0290913002A0913102E1
:10418000B09132024196A11DB11D80932F029093F0
:104190003002A0933102B0933202BF91AF919F9150
:1041A0008F910F900FBE0F901F90189582E084BDE5
:1041B00093E095BD9AEF97BD80936E0008952FB759
:1041C000F89480912F0290913002A0913102B09129
:1041D00032022FBF0895CF92DF92EF92FF920F939A
:1041E0001F932FB7F89440912F02509130026091A5
:1041F0003102709132022FBF6A017B01EE24FF244D
:104200008C0130E020E0C016D106E206F30650F043
:10421000481B590BCA011F910F91FF90EF90DF903F
:10422000CF90089541505109F3CF78941F920F9287
:104230000FB60F9211248F939F93AF93BF938091EA
:104240002F0290913002A0913102B091320201967A
:10425000A11DB11D80932F0290933002A0933102D3
:10426000B0933202BF91AF919F918F910F900FBE8B
:104270000F901F90189587E797E790930108809318
:10428000000888E19AE00FB6F894A8958093600042
:104290000FBE90936000FFCF0E940320811102C0E7
:1042A0000E94E21F0E940E208093E9010E941B20C1
:1042B00090E090933402809333020E941220682F82
:1042C00070E090E080E00C94E21D8091ED0180FFB1
:1042D00012C06091080185E0689FB00111247595B6
:1042E00067957595679560387105A8F56115710535
:1042F000A1F1862F089581FF09C06091080185E032
:10430000689FB001112475956795EDCF82FF07C0B6
:104310006091080185E0689FB0011124E4CF2091ED
:10432000EE012223A9F0909107016091080185E038
:10433000689FB00111242917B0F6269FA001279F7E
:10434000500D1124692F70E0CA010E94C72FCBCFF6
:1043500065E070E0CECF8FE7089581E00895809109
:10436000ED0180FF0CC06091060170E075956795C6
:10437000759567956115710549F1862F089581FF3F
:1043800006C06091060170E075956795F3CF609166
:10439000060182FD0BC09091EE019923A1F060917E
:1043A000050180910601961738F0682F70E060389B
:1043B000710500F38FE70895899FC001112470E013
:1043C0000E94C72FF4CF61E070E0D7CF81E008955D
:1043D000803F31F40E94652181958093F101089519
:1043E000813F19F40E946521F8CF823F31F40E9489
:1043F000652181958093F0010895833F19F40E940F
:104400006521F8CF893F29F40E94AF218093F20102
:1044100008958A3F21F40E94AF218195F7CF8B3F09
:1044200031F40E94AF2181958093F30108958C3F70
:1044300019F40E94AF21F8CF843F31F48091EF014D
:1044400081608093EF010895853F21F48091EF0111
:104450008260F7CF863F21F48091EF018460F1CF35
:10446000873F21F48091EF018860EBCF883F21F4F2
:104470008091EF018061E5CF8D3F31F48091ED01B6
:1044800081608093ED0108958E3F21F48091ED01CC
:104490008260F7CF8F3FB9F78091ED018460F1CF53
:1044A000803FC1F48091F10187FD1092F10180916C
:1044B000F00181110EC08091F10181110AC080913B
:1044C000F201811106C08091F301811102C01092A6
:1044D000EE010895813F29F48091F10118162CF323
:1044E000E6CF9091F001823F29F497FFE0CF109240
:1044F000F001DDCF833F19F41916CCF3D8CF893FF3
:1045000039F48091F201181694F61092F201CFCF8F
:104510008A3F29F48091F20187FFC9CFF6CF8B3F04
:1045200039F48091F30187FFC2CF1092F301BFCF1E
:104530008C3F29F48091F3011816BCF3B8CF843F67
:1045400031F48091EF018E7F8093EF01B0CF853FF2
:1045500021F48091EF018D7FF7CF863F21F4809188
:10456000EF018B7FF1CF873F21F48091EF01877FAF
:10457000EBCF883F21F48091EF018F7EE5CF8D3F17
:1045800031F48091ED018E7F8093ED0190CF8E3FCD
:1045900021F48091ED018D7FF7CF8F3F09F087CF18
:1045A0008091ED018B7FF0CF8FEE91E00E94EB14B4
:1045B0000E94DF209093EC018093EB0108951F93FC
:1045C000CF93DF938091EB019091EC010E94EB205F
:1045D000AC019091EE012091090130E0911106C0EB
:1045E00020910A018AE0289F900111244217530765
:1045F00080F08091F0011091F101D091F201C09111
:10460000F30181110AC0111161C0D1115FC0C11144
:104610005DC0DF91CF911F9108959F3F19F09F5F7B
:104620009093EE01181624F40E9465218093F00106
:104630008091F00187FF05C00E94652181958093DC
:10464000F001111624F40E9465218093F1018091FC
:10465000F10187FF05C00E94652181958093F101DA
:104660004091F001442379F03091F101332359F066
:1046700025EB4203A00111245093F0013203900175
:1046800011243093F1011D1624F40E94AF21809370
:10469000F2018091F20187FF05C00E94AF21819550
:1046A0008093F2011C1624F40E94AF218093F30141
:1046B0008091F30187FF05C00E94AF21819580930F
:1046C000F301DF91CF911F910C94D4229F3F09F009
:1046D000A6CFB7CF85E0EFEEF1E0DF011D928A951E
:1046E000E9F71092EE011092ED010895833081F107
:1046F00028F4813059F08230D1F00895853009F4E2
:1047000049C0B8F1863009F456C0089580910A0175
:10471000482F460F5527551F4F3F510524F4680F6A
:1047200060930A0108958FEF80930A0108958091A4
:104730000901482F460F5527551F4F3F510524F4B7
:10474000680F6093090108958FEF80930901089520
:1047500080910801482F460F5527551F4F3F51059F
:1047600024F4680F6093080108958FEF8093080187
:10477000089580910701482F460F5527551F4F3F39
:10478000510524F4680F6093070108958FEF80931B
:104790000701089580910601482F460F5527551FA0
:1047A0004F3F510524F4680F6093060108958FEF81
:1047B00080930601089580910501482F460F5527E3
:1047C000551F4F3F510524F4680F6093050108956C
:1047D0008FEF809305010895833011F128F4813023
:1047E00049F0823091F00895853081F120F18630D2
:1047F000C1F1089580910A01681720F4861B809307
:104800000A01089510920A0108958091090168171C
:1048100020F4861B809309010895109209010895E0
:1048200080910801681720F4861B80930801089581
:1048300010920801089580910701681720F4861BE3
:104840008093070108951092070108958091060151
:10485000681720F4861B80930601089510920601C4
:10486000089580910501681720F4861B8093050147
:1048700008951092050108950F931F9341E050E0B1
:1048800060E070E08A019B0104C0000F111F221F2D
:10489000331F8A95D2F7C901B8010E94E21D1F910A
:1048A0000F910C94011A8732A8F58E3108F07BC065
:1048B0008E3009F46DC058F4873009F45AC08B303B
:1048C00009F44BC0863009F44AC080E0089586316F
:1048D00009F443C068F48031C1F79091E901892F50
:1048E000877F93FF88608093E90183FD0FC035C007
:1048F000893199F18B3149F79091E901892F8D7FA9
:1049000091FF82608093E90181FF27C08091E901D6
:1049100081603BC0883309F150F4893221F085333E
:1049200011F0873291F680E00E943C2416C0833457
:10493000D1F320F48A3348F28953F6CF883429F62C
:104940000E94011A2FEF83ED90E3215080409040A8
:10495000E1F700C000000E943B2181E008958091B2
:10496000E901817F8E7F8093E90181E08093F501E9
:1049700008959091E901892F8E7F90FF8160809347
:10498000E90180FDEACF897F877F8093E901E5CF48
:104990009091E901892F8B7F92FF84608093E901D8
:1049A00082FDB4CFDACF8D51BFCF80E008950C9453
:1049B000D5248E518A3030F4E82FF0E0E95DFE4FC7
:1049C0008081089580E00895CF93C82F8091F501EC
:1049D0008130C9F030F08230D9F11092F50180E0D9
:1049E00010C0E0910301F091040180818232B9F797
:1049F0008C2F0E94D52481111BC08C2F0E94532420
:104A00008170CF910895E0910301F09104018081BC
:104A1000823271F38C2F0E94D724811110C0C431CF
:104A200081F048F4CB3059F0C03171F080E0E8CF2C
:104A300081E090E0E5CFC93221F0C833B9F781E0D9
:104A4000DFCF1092F501F2CF82E08093F501F7CF2E
:104A5000C93219F188F4C43101F120F4C73081F171
:104A600081E0CFCF82EE8C0F8630D0F78C2F0E9462
:104A7000D9248093F401F4CFCE3401F140F46AE0FC
:104A8000CB3471F78091F4010E947623E9CFC135D0
:104A900079F061E0C235B1F3E3CF8091F40188236E
:104AA00019F01092F401DCCF81E08093F501A9CFD9
:104AB00061E08091F4010E94EC23D2CF6AE0F9CF4B
:104AC0008EE180930A0182E3809309018AE080935A
:104AD000080184E18093070188E08093060188E261
:104AE00080930501BDCF8091FE0108950F931F9320
:104AF000CF93DF9300D01F92CDB7DEB78C010E9419
:104B0000BB27823011F0843019F583E089831B8341
:104B10000A838093E9008FEF9091E800815095FD22
:104B200006C095ED9A95F1F700008111F5CF8091BF
:104B3000E80085FF0DC050E040E063E070E0CE018A
:104B400001960E94D8278091E8008E778093E80034
:104B50000F900F900F90DF91CF911F910F910895BB
:104B6000CF93DF9300D01F92CDB7DEB720913902EB
:104B7000243031F522E02983805891099B838A8370
:104B800083E08093E9008FEF9091E800815095FDDC
:104B900006C095ED9A95F1F700008111F5CF80914F
:104BA000E80085FF0DC050E040E063E070E0CE011A
:104BB00001960E94D8278091E8008E778093E800C4
:104BC0000F900F900F90DF91CF910895CF93DF93C7
:104BD000EC010E94BB27823011F08430F9F482E0AE
:104BE0008093E9008FEF9091E800815095FD06C019
:104BF00095ED9A95F1F700008111F5CF8091E800CD
:104C000085FF0CC050E040E065E070E0CE010E94FE
:104C1000D8278091E8008E778093E800DF91CF91CC
:104C20000895CF93DF93EC010E94BB27823011F0EF
:104C3000843039F581E08093E9008FEF9091E800AE
:104C4000815095FD06C095ED9A95F1F70000811110
:104C5000F5CF8091E80085FF14C050E040E068E0A7
:104C600070E0CE010E94D8278091E8008E77809373
:104C7000E80088E0FE01A6EFB1E001900D928A9570
:104C8000E1F7DF91CF91089580913802811109C039
:104C90000E9468290E94C5298091E2008460809367
:104CA000E2000895109238020895089508950C9432
:104CB000A72042E061EC81E00E94E62842E061EC3E
:104CC00082E00E94E62842E061EC83E00C94E62852
:104CD00080913B02833009F452C030F4813059F1A5
:104CE000823009F48EC008958A3009F47AC08B307E
:104CF00009F460C0893009F041C080913A028132E4
:104D0000E9F580913E0290913F02892BB9F580919F
:104D1000E800877F8093E8008091E80082FF2AC046
:104D20008091F1008093FE018091E8008B77809361
:104D3000E8000C941A2980913A02813AF9F48091A2
:104D4000E800877F8093E80080913E0290913F02C7
:104D5000892B61F468E086EF91E070E00E942728DB
:104D60008091E8008B778093E800089560E090E000
:104D700080E0F3CF809139028111CECF08958091E8
:104D80003A02813AD9F780913E0290913F02892BF5
:104D9000A9F78091E800877F8093E8008091E80080
:104DA00080FFFCCF809115018093F1008091E80095
:104DB0008E77BDCF80913A02813201F780913E0219
:104DC00090913F02892BD1F68091E800877F8093F4
:104DD000E8000E941A2980913C02809315010C94EE
:104DE000011A80913A02813249F68091E800877F6A
:104DF0008093E8000E941A2980913D028093FF0170
:104E0000089580913A02813A09F0B8CF8091E80084
:104E1000877F8093E8008091E80080FFFCCF80913D
:104E2000FF01C2CF84B7877F84BF0FB6F894A895DF
:104E300080916000886180936000109260000FBED6
:104E400080E880936100109261000E9422150E9408
:104E500068290E94C5298091E20084608093E20065
:104E600078940E944E2C0E9426158BE091E00E94BF
:104E7000CF1480913902853029F00E942E150E94AE
:104E80006314F7CF0E94652080913702882389F34D
:104E90000E949320882369F30E94C227EACF292F1A
:104EA00033272330310579F158F421303105F1F001
:104EB0002230310519F190E080E030E020E01AC0A6
:104EC00021323105C9F122323105A9F7633071056C
:104ED00090F7FB01EE0FFF1FEC5CFE4F208131814C
:104EE0006F5C7E4FFB01808190E004C082E190E026
:104EF00022EF3BE0FA0131832083089584E590E0BE
:104F00002EE93BE0F7CF99278130910579F040F009
:104F10008230910571F0039771F6E8E5FBE002C07D
:104F2000EAE9FBE0849190E09F01E4CFEAE8FBE04E
:104F3000F9CFEEE5FBE0F6CF6330710508F0BBCFAB
:104F4000660F771FFB01E65CFE4F2081318189E00F
:104F500090E0D0CF0895CF93C82F0E94AA27C09386
:104F60000002CF91089580913902843011F081E0E0
:104F7000089582E0089580910002811102C00C948E
:104F8000B327089580E189BD82E189BD09B400FE9F
:104F9000FDCF8091D8008F7D8093D8008091E00074
:104FA00082608093E0008091E00081FDFCCF089555
:104FB000AF92BF92CF92DF92FF920F931F93CF9346
:104FC000DF936C01EB018A010E943929F82E8111CF
:104FD00023C00115110539F0F80180819181C81BAA
:104FE000D90BC80ED91EB12CA12C2097A9F0809105
:104FF000E80085FD22C08091E8008E778093E8006C
:1050000001151105A1F0F80180819181A80EB91E4A
:10501000B182A08285E0F82E8F2DDF91CF911F9174
:105020000F91FF90DF90CF90BF90AF9008950E94B6
:1050300039298823D1F2F82EEFCFF60181916F0143
:105040008093F1002197FFEFAF1ABF0ACECFFC018A
:10505000809140029091410286179707A0F0611558
:10506000710529F49091E8009E779093E80090E014
:105070006115710551F4911108C08091E80082FF1B
:1050800035C080E00895BC01F2CF809139028823B9
:10509000C9F18530C9F18091E80083FD31C080916C
:1050A000E80082FDEACF8091E80080FFE1CF209107
:1050B000F3008091F200322F282F6115710519F04D
:1050C0002830310558F091E02830310509F090E0A2
:1050D0002091E8002E772093E800CACF8191809339
:1050E000F100615071092F5F3F4FE7CF8091390286
:1050F000882341F0853041F08091E80083FFBDCFE7
:1051000081E0089582E0089583E00895FC01809194
:1051100040029091410286179707A0F06115710532
:1051200029F48091E8008E778093E80090E0611583
:10513000710551F4911108C08091E80082FF36C0DA
:1051400080E00895BC01F2CF809139028823D1F12B
:105150008530D1F18091E80083FD32C08091E80074
:1051600082FDEACF8091E80080FFE1CF2091F3003B
:105170008091F200322F282F6115710519F0283027
:10518000310558F091E02830310509F090E0809128
:10519000E8008E778093E800CACF84918093F10075
:1051A0003196615071092F5F3F4FE6CF80913902F0
:1051B000882341F0853041F08091E80083FFBCCF27
:1051C00081E0089582E0089583E00895982F973054
:1051D00028F08F708093E90081E008959093E900B2
:1051E000242F762F50E0981731F07091EC00209129
:1051F000ED005091F00021FD02C09F5FE8CF30919B
:10520000EB003E7F3093EB003091ED003D7F30931B
:10521000ED003091EB0031603093EB007093EC00C7
:105220002093ED005093F0002091EE0027FDE5CF94
:1052300080E0089580913A0287FF13C08091E800D2
:1052400082FF06C08091E8008B778093E80004C05D
:10525000809139028111F2CF08958091390288231B
:10526000D9F38091E80080FFF8CF8091E8008E7735
:10527000ECCF2091E4003091E50085E69091EC00C0
:1052800090FF06C09091E80090FF06C080E008956E
:105290009091E80092FDFACF90913902992391F014
:1052A000953091F09091EB0095FD10C04091E40095
:1052B0005091E5002417350709F381509A01F1F662
:1052C00084E0089582E0089583E0089581E00895E0
:1052D0000E94D6290E94DE29E0EEF0E08081816004
:1052E0008083E8EDF0E080818F77808319BCA7EDA3
:1052F000B0E08C918E7F8C9380818F7E8083109222
:10530000380208950F931F93CF93DF930E94D629FD
:105310000E94DE29C8EDD0E088818F77888388815C
:105320008068888388818F7D888319BC10923902B8
:1053300010923502109237021092360200EE10E001
:10534000F80180818B7F808388818160888342E03F
:1053500060E080E00E94E628E1EEF0E080818E7F50
:105360008083E2EEF0E080818160808380818860CC
:105370008083F80180818E7F80838881806188832B
:10538000DF91CF911F910F910895E8EDF0E08081BA
:105390008F7E8083E7EDF0E080818160808384E010
:1053A00082BF81E0809338020C948229E8EDF0E01E
:1053B00080818E7F80831092E20008951092DA003F
:1053C0001092E10008951F920F920FB60F921124D0
:1053D0002F933F934F935F936F937F938F939F93FD
:1053E000AF93BF93EF93FF938091E10082FF0BC0D7
:1053F0008091E20082FF07C08091E1008B7F809363
:10540000E1000E944D2C8091DA0080FF19C080914C
:10541000D80080FF15C08091DA008E7F8093DA007B
:105420008091D90080FF94C080E189BD82E189BD6F
:1054300009B400FEFDCF81E0809339020E9444262A
:105440008091E10080FF19C08091E20080FF15C0CB
:105450008091E2008E7F8093E2008091E200806183
:105460008093E2008091D80080628093D80019BCBC
:1054700085E0809339020E9456268091E10084FFE6
:1054800029C08091E20084FF25C080E189BD82E1CE
:1054900089BD09B400FEFDCF8091D8008F7D809337
:1054A000D8008091E1008F7E8093E1008091E2003E
:1054B0008F7E8093E2008091E20081608093E20021
:1054C00080913502882309F449C084E08093390231
:1054D0000E9457268091E10083FF29C08091E2005D
:1054E00083FF25C08091E100877F8093E10082E007
:1054F00080933902109235028091E1008E7F809373
:10550000E1008091E2008E7F8093E2008091E200D2
:1055100080618093E20042E060E080E00E94E62843
:105520008091F00088608093F0000E945526FF91E2
:10553000EF91BF91AF919F918F917F916F915F910B
:105540004F913F912F910F900FBE0F901F90189584
:1055500019BC109239020E94522672CF8091E3004A
:1055600087FD02C081E0B2CF83E0B0CF1F920F92DF
:105570000FB60F9211242F933F934F935F936F9326
:105580007F938F939F93AF93BF93CF93EF93FF93AB
:10559000C091E900CF708091EC001092E9008091F9
:1055A000F000877F8093F00078940E94F22A109296
:1055B000E9008091F00088608093F000C093E900DA
:1055C000FF91EF91CF91BF91AF919F918F917F917B
:1055D0006F915F914F913F912F910F900FBE0F9060
:1055E0001F9018951F93CF93DF93CDB7DEB7AA977F
:1055F0000FB6F894DEBF0FBECDBFEAE3F2E08091B4
:10560000F100819322E0E234F207C9F70E94682694
:105610008091E80083FF44C080913A0290913B0260
:105620009A3008F03DC0E92FF0E0E75EF44D0C94AD
:10563000DB2F232B492B502B492B502BA72BC92B6E
:10564000502B202C2D2C803889F0823849F5809100
:105650003E028F70873020F58093E9008091EB0047
:1056600085FB882780F91092E90006C080913602F8
:1056700090913702911182609091E800977F90930A
:10568000E8008093F1001092F1008091E8008E779D
:105690002DC0282F2D7F21F48823D1F0823059F19D
:1056A0008091E80083FF0AC08091E800877F8093A3
:1056B000E8008091EB0080628093EB00AA960FB621
:1056C000F894DEBF0FBECDBFDF91CF911F9108953B
:1056D00080913C02813021F7933009F080E0809383
:1056E00037021092E9008091E800877F8093E800FC
:1056F0000E941A29D5CF80913C028111F2CF80916E
:105700003E028F702FEF280F263050F68093E9006D
:105710002091EB0020FFE5CF933031F48091EB0036
:1057200080628093EB00DDCF9091EB0090619093CD
:10573000EB0021E030E001C0220F8A95EAF72093C8
:10574000EA001092EA008091EB008860EACF8111B4
:10575000A7CF10913C021F778091E3008078812BC6
:105760008093E3008091E800877F8093E8000E94A7
:105770001A298091E80080FFFCCF8091E3008068C7
:105780008093E30083E0111101C082E0809339022D
:1057900087CF8058823008F083CF80913C0290916F
:1057A0003D028C3D23E09207A1F583E08A838AE2E3
:1057B00089834FB7F894DE01139620E03EE051E272
:1057C000E32FF0E050935700E49120FF03C0E295EF
:1057D000EF703F5FEF708E2F90E0EA30C0F0C79619
:1057E0008D939D932F5F243159F74FBF8091E8002F
:1057F000877F8093E8006AE270E0CE0101960E9404
:1058000027288091E8008B778093E80049CFC096E5
:10581000E7CF60913E0270913F02AE014F5F5F4F54
:105820000E944F27BC01892B09F43ACF9091E800E0
:10583000977F9093E80089819A810E948628E1CF22
:10584000803809F02DCF8091E800877F8093E800B1
:10585000809135028093F10018CF811121CF909172
:105860003C02923008F01CCF8091E800877F809343
:10587000E800909335020E941A298091350288230E
:1058800031F084E0809339020E94592609CF80913B
:10589000E30087FDF6CF81E0F5CF0895CF938091A7
:1058A0003902882399F0C091E900CF708091EC0013
:1058B00080FD0EC080E0C82B1092E9008091E800C6
:1058C00083FD0E94F22ACF70C093E900CF91089522
:1058D00080E8F1CF5058BB27AA270E94822C0C9455
:1058E0002D2E0E941F2E38F00E94262E20F039F413
:1058F0009F3F19F426F40C94F52D0EF4E095E7FB88
:105900000C94EF2DE92F0E943E2E58F3BA17620730
:1059100073078407950720F079F4A6F50C94602EA0
:105920000EF4E0950B2EBA2FA02D0B01B9019001BA
:105930000C01CA01A0011124FF27591B99F0593FFE
:1059400050F4503E68F11A16F040A22F232F342F46
:105950004427585FF3CF469537952795A795F04094
:105960005395C9F77EF41F16BA0B620B730B840BA9
:10597000BAF09150A1F0FF0FBB1F661F771F881F61
:10598000C2F70EC0BA0F621F731F841F48F48795B9
:1059900077956795B795F7959E3F08F0B0CF9395AB
:1059A000880F08F09927EE0F9795879508950E9424
:1059B000EB2C0C942D2E0E94262E58F00E941F2EA8
:1059C00040F029F45F3F29F00C94EF2D51110C9415
:1059D000612E0C94F52D0E943E2E68F39923B1F3AD
:1059E000552391F3951B550BBB27AA276217730705
:1059F000840738F09F5F5F4F220F331F441FAA1F99
:105A0000A9F335D00E2E3AF0E0E832D09150504054
:105A1000E695001CCAF72BD0FE2F29D0660F771F02
:105A2000881FBB1F261737074807AB07B0E809F0E8
:105A3000BB0B802DBF01FF2793585F4F3AF09E3F6D
:105A4000510578F00C94EF2D0C94612E5F3FE4F338
:105A5000983ED4F3869577956795B795F7959F5FB0
:105A6000C9F7880F911D9695879597F90895E1E0FC
:105A7000660F771F881FBB1F621773078407BA075B
:105A800020F0621B730B840BBA0BEE1F88F7E095B6
:105A9000089529F416F00C94EF2D0C94602E0C94BC
:105AA000F52D0E94462EA8F39638A0F707F80F921E
:105AB000E8942BE33AEA48EB5FE70E94F32E0F925B
:105AC0000F920F924DB75EB70F920E94A92EECEA8B
:105AD000F0E00E94F82D4F915F91EF91FF91E595D5
:105AE000EE1FFF1F49F0FE57E0684427EE0F441FEA
:105AF000FA95E1F74195550B0E94732E0F9007FE22
:105B00000C94672E08950E94462E88F09F5798F0B7
:105B1000B92F9927B751B0F0E1F0660F771F881FB2
:105B2000991F1AF0BA95C9F714C0B13091F00E94CC
:105B3000602EB1E008950C94602E672F782F88278F
:105B4000B85F39F0B93FCCF3869577956795B395F3
:105B5000D9F73EF490958095709561957F4F8F4F62
:105B60009F4F0895E89409C097FB3EF49095809567
:105B7000709561957F4F8F4F9F4F9923A9F0F92F13
:105B800096E9BB279395F695879577956795B79591
:105B9000F111F8CFFAF4BB0F11F460FF1BC06F5F77
:105BA0007F4F8F4F9F4F16C0882311F096E911C089
:105BB000772321F09EE8872F762F05C0662371F0AA
:105BC00096E8862F70E060E02AF09A95660F771FBE
:105BD000881FDAF7880F9695879597F9089597F9B2
:105BE0009F6780E870E060E008959FEF80EC089583
:105BF000DF93CF931F930F93FF92EF92DF927B017E
:105C00008C01689406C0DA2EEF010E94F02EFE018E
:105C1000E894A5912591359145915591A6F3EF0111
:105C20000E94822CFE019701A801DA9469F7DF90A7
:105C3000EF90FF900F911F91CF91DF910895002475
:105C40000A941616170618060906089500240A94E1
:105C500012161306140605060895092E0394000C67
:105C600011F4882352F0BB0F40F4BF2B11F460FFF6
:105C700004C06F5F7F4F8F4F9F4F089557FD90581F
:105C8000440F551F59F05F3F71F04795880F97FB00
:105C9000991F61F09F3F79F08795089512161306BA
:105CA0001406551FF2CF4695F1DF08C016161706E9
:105CB0001806991FF1CF869571056105089408951E
:105CC000E894BB2766277727CB0197F908959B01B6
:105CD000AC0160E070E080E89FE30C94D72C0C945A
:105CE000EF2D0C94522F0E94462ED8F39923C9F31E
:105CF000940F511DA3F39150504094F059F0882314
:105D000032F0660F771F881F91505040C1F79E3FB9
:105D100051052CF7880F911D9695879597F9089551
:105D20005F3FACF0983E9CF0BB27869577956795D2
:105D3000B79508F4B1609395C1F7BB0F58F711F40C
:105D400060FFE8CF6F5F7F4F8F4F9F4FE3CF0C9483
:105D5000612EFA01DC01AA0FBB1F9B01AC01BF57EA
:105D600028F4222733274427507820C0B75190F4D5
:105D7000AB2F0024469537952795011CA395D2F3A8
:105D8000002071F0220F331F441FB395DAF30ED0B9
:105D90000C946A2C61307105A0E88A07B94630F48A
:105DA0009B01AC016627772788279078309621F0F1
:105DB000208331834283538308950E94F02E0C94F4
:105DC0002D2E0E941F2E38F00E94262E20F09523A3
:105DD00011F00C94EF2D0C94F52D11240C94612EE0
:105DE0000E943E2E70F3959FC1F3950F50E0551F12
:105DF000629FF001729FBB27F00DB11D639FAA2720
:105E0000F00DB11DAA1F649F6627B00DA11D661F6E
:105E1000829F2227B00DA11D621F739FB00DA11D8F
:105E2000621F839FA00D611D221F749F3327A00D49
:105E3000611D231F849F600D211D822F762F6A2FE5
:105E400011249F5750409AF0F1F088234AF0EE0F4A
:105E5000FF1FBB1F661F771F881F91505040A9F777
:105E60009E3F510580F00C94EF2D0C94612E5F3F06
:105E7000E4F3983ED4F3869577956795B795F795B3
:105E8000E7959F5FC1F7FE2B880F911D969587952B
:105E900097F908959F930E94622F0F9007FCEE5F81
:105EA0000C948B2F9F3F31F0915020F4879577957C
:105EB0006795B795880F911D9695879597F90895E1
:105EC0000C94F52D0E94462ED8F3E894E0E0BB2711
:105ED0009F57F0F02AED3FE049EC06C0EE0FBB0FF4
:105EE000661F771F881F28F0B23A6207730784077E
:105EF00028F0B25A620B730B840BE3959A9572F7F4
:105F0000803830F49A95BB0F661F771F881FD2F731
:105F100090480C94542FEF93E0FF07C0A2EA2AEDBB
:105F20003FE049EC5FEB0E94822C0E942D2E0F90E7
:105F3000039401FC9058E4EDF0E00C949F2F9F93A4
:105F40008F937F936F93FF93EF939B01AC010E941C
:105F5000DD2EEF91FF910E94F82D2F913F914F91EF
:105F60005F910C94DD2EAA1BBB1B51E107C0AA1F39
:105F7000BB1FA617B70710F0A61BB70B881F991FEA
:105F80005A95A9F780959095BC01CD01089597FB8E
:105F9000072E16F4009407D077FD09D00E94B32F86
:105FA00007FC05D03EF4909581959F4F089570951C
:105FB00061957F4F0895EE0FFF1F0590F491E02D3E
:105FC0000994F999FECF92BD81BDF89A992780B5C1
:105FD0000895A6E1B0E044E050E00C941B30A8E145
:105FE000B0E042E050E00C941B30262FF999FECF30
:105FF00092BD81BDF89A019700B4021639F01FBA1C
:1060000020BD0FB6F894FA9AF99A0FBE0895039638
:10601000272F0E94F62F0E94F52F252F0E94F62F82
:10602000242F0C94F62F0196272F0E94F62F0C9404
:10603000F52FDC01CB01FC01F999FECF06C0F2BDC2
:10604000E1BDF89A319600B40D9241505040B8F736
:066050000895F894FFCF53
:10605600010102DE012808140A321E73251126E604
:1060660025B025762501F5F6F7313332369497C6F5
:106076003435000000000001020304050607080984
:1060860000404D36870C3A0C040CB00BC90BE20BE2
:00000001FF
